:020000040001F9
:10F00000A849002015F401001DF401001FF40100BF
:10F0100021F4010023F4010025F4010000000000A8
:10F0200000000000000000000000000027F40100C4
:10F0300029F40100000000002BF401002DF4010070
:10F040004DF701002FF40100E5FB01002FF4010052
:10F050002FF401002FF4010049F50100C9F7010068
:10F060002FF401002FF401002FF401002FF4010010
:10F070002FF401002FF401002FF401002FF4010000
:10F080002FF40100A5F701002FF401002FF4010077
:10F0900021F901002FF4010025F901002FF40100EE
:10F0A0002FF401002FF401002FF401002FF40100D0
:10F0B0002FF401002FF40100000000000000000008
:10F0C0002FF401002FF401002FF401002FF40100B0
:10F0D0002FF401002FF401002FF4010000000000C4
:10F0E0000000000000000000000000000000000020
:10F0F0000000000000000000000000000000000010
:10F1000000000000000000000000000000000000FF
:10F1100000000000000000000000000000000000EF
:10F40000DFF80CD000F06EF800480047D11602007B
:10F41000A84900200648804706480047FEE7FEE767
:10F42000FEE7FEE7FEE7FEE7FEE7FEE7FEE7FEE7B4
:10F4300049F9010001F4010040EA01039B0703D0F0
:10F4400009E008C9121F08C0042AFAD203E011F823
:10F45000013B00F8013B521EF9D27047D2B201E0E5
:10F4600000F8012B491EFBD270470022F6E710B5C9
:10F4700013460A4604461946FFF7F0FF204610BD22
:10F480002DE9F05F0546002092469B4688460646D9
:10F49000814640241BE0284641464746224600F06C
:10F4A00042F853465A46C01A914110D311461846A5
:10F4B000224600F029F82D1A67EB01084F46224634
:10F4C0000120002100F020F817EB00094E41201E1A
:10F4D000A4F10104DFDC484631462A464346BDE834
:10F4E000F09F0000064C074D06E0E06840F0010385
:10F4F00094E8070098471034AC42F6D3FFF784FF36
:10F500007C3002009C300200202A04DB203A00FA02
:10F5100002F1002070479140C2F1200320FA03F36A
:10F52000194390407047202A04DB203A21FA02F068
:10F530000021704721FA02F3D040C2F1200291402D
:10F5400008431946704700002DE9F04700268CB0AB
:10F55000DFF86091B0464FF4807501243746069677
:10F56000284602F059FE38B1D9F80403204203D0EE
:10F57000284602F047FE26432D1D64007F1CADB2D5
:10F58000082FEDD34FF4BE74204602F045FE48B17B
:10F59000204602F037FE46F0004606AA0121002070
:10F5A00002F01CFE444D16F0FF0F15D00127002479
:10F5B00037420DD009EB8401D1F81005D1F81015B0
:10F5C000C0F3042055F82420C1F3014102B1904753
:10F5D0007F00641C082CEBD3002E67DA4FF0FF305D
:10F5E000CDE9088000263446281910F8507F90F99C
:10F5F000000027F0C008401C44D009A9404602F092
:10F60000D3F858B34FEA9719404601F07DFC55F8FE
:10F6100020701FB1B9F1030F03D00FE0B9F1030F50
:10F6200030D108A84FEAD80208F00703815C4FF0F8
:10F63000010C0CFA03FC41EA0C0181544FF0A0418B
:10F6400001EB8800D0F8000706A9C0F3014A404644
:10F6500002F0AAF818B1BAF1020F03D012E0BAF121
:10F66000030F0FD1B9F1030F08D1BAF1020F1BD06C
:10F670000221404602F096FD761CF6B217B14946CB
:10F680004046B847641C042CAED3002E0ED06A4608
:10F690000121002002F0A2FD06990098884205D0C1
:10F6A0000690089809909DE70321E2E70CB0BDE8B9
:10F6B000F087000000600040B428002000F01F0226
:10F6C000012191404009800000F1E020C0F8801243
:10F6D000704700F01F02012191404009800000F1B5
:10F6E000E020C0F88011704700F01F020121914016
:10F6F0004009800000F1E020C0F80011704700F0E0
:10F700001F02012191404009800000F1E020C0F873
:10F710000011704700F01F02012191404009800054
:10F7200000F1E020C0F8001270474907090E0028D8
:10F7300006DA00F00F0000F1E02080F8141D704799
:10F7400000F1E02080F80014704700002DE9F0413E
:10F750004FF48077384602F02FF80124104EA507A9
:10F7600048B1384602F02FF80120C5F8080374703C
:10F77000002001F0F3FB4FF48277384602F01CF8CA
:10F7800000280BD0384602F01EF80220C5F8080306
:10F79000B470BDE8F041012001F0E0BBBDE8F081AC
:10F7A000A028002007480021C0F84011C0F84411EB
:10F7B000C0F84811C0F84C11C0F80011C0F804118D
:10F7C00003F020BA001001402DE9FE434FF4827887
:10F7D000404602F06FFD504F0025504C012600B30B
:10F7E000404602F06FFD94F82B0010B194F82C10F5
:10F7F000D1B18DF80050616801912189ADF80810F0
:10F80000E16829B16160A18A2181E56018B103E056
:10F8100084F8295000E03E6021686846884784F8F3
:10F820002C5094F82B0098B34FF48077384602F0B0
:10F8300041FD68B3384602F045FDE28A72B194F8A2
:10F840002A108A4210D9A2EB010080B2E0822289FC
:10F85000A2EB0000626802EB40000BE0208994F804
:10F860002A10A0EB0100F0E707D1E06828B184F886
:10F870002C60E58202F0D8FC04E08A4202D184F8D0
:10F880002C60E582404602F01DFD2348001D066005
:10F890004FF48877384602F00DFD50B1384602F03B
:10F8A00011FD84F8295002208DF800002168684677
:10F8B00088474FF48A77384602F0FCFC30B138466E
:10F8C00002F000FD84F82950BDE8FE834FF00048A7
:10F8D0004FF48C7927691CE0B7FA87F028FA00F119
:10F8E00009EB80058F43284602F0E4FC88B12846E6
:10F8F00002F0E8FCA5F58C75E8088DF8040045F3E6
:10F900008000401C8DF800608DF805002168684675
:10F910008847002FE0D1D7E7007000402C29002055
:10F9200003F0E8B8074810B5406830B180470028B8
:10F9300007D0BDE8104000F041BCBDE8104001F028
:10F94000CDBC10BD60200020F0B598480023021DFA
:10F9500001780125101D4FF08056062907D1147833
:10F96000240704D10478C4F30314032C02D006291D
:10F9700004D00FE08F4F8E4C7C670EE01478240784
:10F9800008D10478C4F30314032C06D0042C04D04B
:10F99000052C02D0062907D00EE0D6F84442864F47
:10F9A000C4F342343C6002E01478240704D10478A4
:10F9B000C4F30314032C02D0062906D011E07F4CB7
:10F9C000276827F0807727600EE01478240708D195
:10F9D0000478C4F30314032C06D0042C04D0052CA3
:10F9E00002D006290AD011E04FF08044C4F80C314F
:10F9F000C4F81031704C241F236002E014782407EF
:10FA000004D10478C4F30314032C02D0062905D0D2
:10FA10000CE0694F032464373C600AE01478240743
:10FA200004D10478C4F30314032C02D006290DD0AA
:10FA300014E0634F05243C60614C78342560604CD1
:10FA4000083423603F243F1D3C6002E01478240703
:10FA500004D10478C4F30314052C02D0062957D02E
:10FA600068E058490968584A11605649091D0968F3
:10FA7000121D1160534908310968121D1160514966
:10FA80000C310968121D11604E4910310968121DB0
:10FA900011604C4914310968121D1160494918312F
:10FAA0000968494A2032116046491C310968121D13
:10FAB0001160444920310968121D11604149243107
:10FAC0000968121D11603F4928310968121D116033
:10FAD0003C492C310968121D11603A4930310968DE
:10FAE000394A40321160374934310968121D1160BA
:10FAF000344938310968121D116032493C310968B6
:10FB0000121D11602F4940310968121D116002E079
:10FB1000117809070ED10078C0F30310032803D031
:10FB2000042801D0052805D1D6F85802274900F04D
:10FB30004F00086021487438016841F47001016089
:10FB4000BFF34F8FBFF36F8F4FF01021D1F800023A
:10FB5000002803DBD1F80402002822DA1C4A1560D1
:10FB60001C480468002CFCD01524C1F8004205682C
:10FB7000002DFCD0C1F8044201680029FCD01360BC
:10FB800001680029FCD0BFF34F8F0C48F0380168A2
:10FB9000114A01F4E06111430160BFF34F8F00BFD0
:10FBA000FDE70F490D480860F0BD0000E00F00F0D0
:10FBB0000DF0ADBA00C007403C050040FCED00E090
:10FBC000105600400404001020C50040E40E004020
:10FBD00004E5014000E401400400FA050090D00370
:10FBE000742000200448017F04480029024901D004
:10FBF00003F047B903F0B6B80C29002000200040FC
:10FC00000FB4054B10B503A9044A029800F02AF876
:10FC100010BC5DF814FB0000771202005C2000208D
:10FC200002E008C8121F08C1002AFAD170477047C5
:10FC3000002001E001C1121F002AFBD17047000023
:10FC40000121202803DA81400548014003E04028D3
:10FC500002DA2038814009B1012070470020704746
:10FC6000FC06FFBC2DE9FF4F8DB00F460546002670
:10FC700006E025280BD0DDE90F1290476D1C761C9D
:10FC800028780028F5D111B03046BDE8F08F002467
:10FC9000A246A1460122EC4900E0044315F8013FC9
:10FCA000203B02FA03F00842F7D128782A2810D026
:10FCB0006FF02F022878A0F13001092914D80AEB3F
:10FCC0008A0102EB410144F0020400EB010A6D1CC1
:10FCD000F0E701CF5FEA000A03D544F40054CAF10B
:10FCE000000A44F002046D1C28782E2817D115F85C
:10FCF000010F44F004042A280ED06FF02F02287858
:10FD0000A0F1300109290AD809EB890102EB410170
:10FD100000EB01096D1CF2E757F8049B6D1C287875
:10FD20006C280FD006DC4C2817D068280DD06A2824
:10FD300014D104E0742810D07A280FD10DE044F4D7
:10FD400000140AE044F4801401E044F4401469789B
:10FD5000814202D104F580146D1C6D1C2A786E2A34
:10FD60001FD00CDC632A31D004DC002A8BD0582A47
:10FD700011D1A3E0642A68D0692A0CD165E0732A06
:10FD80002ED004DC6F2A73D0702A04D19BE0752A30
:10FD90006FD0782A6ED01046DDE90F129047761C9E
:10FDA00050E1C4F30250022806D0032809D00428E9
:10FDB00001CF09D0066045E101CFF117C0E900612C
:10FDC00040E101CF06803DE106703BE117F8040BEE
:10FDD0008DF8000000208DF80100EB46012003E0C3
:10FDE00057F804BB4FF0FF3061074FF0000102D419
:10FDF0000DE008F10101884649450FDA8045F8DB3E
:10FE00001BF808100029F4D108E008F10101884628
:10FE10008142FADB1BF808100029F6D1DDE90F2337
:10FE2000AAEB08008146214600F036F9304400EB89
:10FE3000080604E0DDE90F121BF8010B9047B8F14A
:10FE40000108F7D221464846F7E00A21C4F30253DD
:10FE50004FF0000B0891022B04D001CFC117032BE8
:10FE600009D00AE0FF1D27F00707F7E8020108E0C4
:10FE700032E01FE020E000B2C117042B01D140B2F4
:10FE8000C117031E71F1000307DA4FF0000CD0EB2D
:10FE90000C006CEB01012D2302E0230504D52B237C
:10FEA0008DF82430012303E0E30701D02023F7E796
:10FEB000984658E00A2110E010210EE010204FF083
:10FEC000000B08900CE010214FF0000B44F00404EC
:10FED0004FF00809089103E008214FF0000B08914A
:10FEE000C4F30253022B04D001CF0021032B06D010
:10FEF00006E0FF1D27F00707F7E8020103E080B2E4
:10FF0000042B00D1C0B24FF0000823072BD5702A74
:10FF100007D0DDF820C08CF0100C5CEA0B0C05D08B
:10FF20000EE040238DF82430012308E050EA01035D
:10FF300006D030238DF824308DF8252002239846F2
:10FF4000DDF820C08CF0080C5CEA0B0C0BD150EAF9
:10FF5000010301D1630706D530238DF824304FF01B
:10FF60000108A9F10109582A04D038A20B9208AA65
:10FF70000A920BE03AA2F9E75B46089AFFF780FA8B
:10FF80000B9B9B5C0A9A521E0A92137050EA010264
:10FF9000F2D10A98ADEB000000F1200B600702D50A
:10FFA00024F4803401E04FF00109D94502DDA9EBCA
:10FFB0000B0000E0002000EB0B0141440890AAEB8D
:10FFC000010AE00306D4DDE90F232146504600F084
:10FFD00063F806444FF0000908E009A911F8090088
:10FFE000DDE90F12904709F10109761CC145F4DBE8
:10FFF000E0030CD5DDE90F232146504600F04CF814
:020000040002F8
:10000000064404E0DDE90F1230209047761C089981
:10001000481E08900029F5DC08E00A980A99007843
:10002000491C0A91DDE90F129047761CBBF10001D3
:10003000ABF1010BF1DC21465046DDE90F2300F066
:1000400019F806446D1C1BE60928010030313233D3
:100050003435363738396162636465660000000004
:1000600030313233343536373839414243444546EE
:10007000000000002DE9F041044600251E46174609
:10008000880404D405E039462020B0476D1C641E66
:10009000F9D52846BDE8F0812DE9F0410446002558
:1000A0001E469046C80301D5302700E0202788046B
:1000B00004D505E041463846B0476D1C641EF9D5AD
:1000C0002846BDE8F08110B501220221002000F091
:1000D000A9FD08B1072810D107220221012000F054
:1000E000A1FD08B1072808D100210A22084600F026
:1000F00099FD08B1072800D1002010BD022000F0B2
:1001000053BC000070B50024064D06E0686801216C
:1001100010F8340001F04CFC641C28788442F5D3BC
:10012000002070BD18200020F8B515460C46064684
:10013000052A01D20720F8BD01F020FD18B901F011
:10014000EFFC0028F7D1104900204E600C70C1E987
:1001500002500E4D08610DE006EBC4006968009185
:1001600081788DF801100078094A694601F072FC27
:100170000028E0D1641EE4B2EED2BDE8F840054AA2
:100180000021024800F04EB8182000205430020030
:1001900085120200C9100200BFF34F8F05480168A5
:1001A000054A01F4E06111430160BFF34F8F00BFC6
:1001B000FDE700000CED00E00400FA050EB500219B
:1001C0000091CDE901106A4644F20100FFF7E4FF17
:1001D0000EBD10B58268C368934203D001F038F8B1
:1001E000002010BD052010BD29B112B1531E1342CD
:1001F00003D0092070470E207047016083800021E2
:100200008160C1600846704710B58268C3689A1A59
:1002100083889A4203D801F025F8002010BD0420FD
:1002200010BD0000074B5B6823B12AB120B1006804
:10023000037C1BB10820704707207047417442615E
:10024000002070473C2000202DE9F04707469846E3
:100250001446894690074FF0000526D12CB302F0D2
:1002600097FA134E06F11000C6F80C800570457021
:1002700080F8029044607560357075701420FFF747
:100280001DFA07211420FFF750FA1420FFF72CFA6B
:100290000848076007211120FFF747FA0548001FAB
:1002A0000068B0600020BDE8F0870720FBE7000091
:1002B0002C200020081501402DE9FC47DFF878903C
:1002C000D9F8043073B368B3052902D20720BDE81A
:1002D000FC87436933B3437C012B25D000270446B8
:1002E0000025884616468DF80050684600F0B0F8A4
:1002F00001A802F03FFEC8B1012101700F4944601E
:100300000968C0E90218C0E904769DF8040089F87C
:1003100001009DF8000000F0BFF81420FFF7FAF983
:100320002846D4E70820D2E70F46D8E704259DF8F1
:10033000000000F0B1F8F3E73C2000200415014074
:100340000649496839B130B1416921B100210174D0
:10035000022102F033BC0820704700003C2000203E
:10036000F0B5284E89B01F460D00044672603BD0A0
:10037000A888296882B22448FFF736FF002834D1C4
:10038000A889A96882B220481030FFF72DFF002805
:100390002BD120221D496846FFF74EF86069069070
:1003A000207C00B101208DF814008DF81C70607C59
:1003B00000B10E208DF81500E0680290A06803904F
:1003C00020680190606800900E48114A6946083024
:1003D00001F0ACFC002808D1B0702068401C04D0AB
:1003E0009DF81D0018B106E0072009B0F0BD0548D2
:1003F000083001F027FD03490122491CC81D01F006
:10040000C9FCF2E74C2000207C2900205C3002006F
:10041000C52C020010B501460B48FFF7F5FE04009D
:1004200010D10A4801F058FE60B908490648083959
:10043000FFF7CFFE30B9054901220839034801F022
:10044000C5FD0446204610BD8C2900205420002004
:1004500030B5EFF3108172B60D4A9468012324B1D0
:100460000370002900D162B630BD93604FF0E023E5
:10047000D3F88051074C25401560C3F88041D3F86C
:10048000844154605A17C3F8842100220270E8E7BF
:100490009C290020FC06FFBC0B498A68002A11D069
:1004A00000280FD1EFF3108072B60B684FF0E022F6
:1004B000C2F800314B68C2F8043100228A6000287B
:1004C00000D162B6704700009C2900202DE9F04160
:1004D000064608680C46411C4FF0A0474FF0010546
:1004E00006D005FA00F1C7F80815206801F03FFEB4
:1004F0006068411C02D0002101F030FE30792049B3
:1005000001EB4010A169007F00283068C0F8241575
:1005100025D0607D227D31681043C1F86C05D4E997
:1005200000123068C0F80C15C0F8142524E0A0684B
:10053000411C02D0002101F011FEE068411C05D0F1
:100540008540C7F80855E06801F011FED4E90212B1
:100550003068C0F80825C0F81015BDE8F081607D4E
:10056000217D32680843C2F86C05D4E90012306876
:10057000C0F81425C0F80C15207D0128D7D0ECE771
:100580000C29002070B540B10C4D297839B10446D2
:1005900002F0E2F828B1002070BD0E2070BD0820E6
:1005A00070BDE868062807D20549226801EB800182
:1005B000401C0A60E860EEE7042070BD08200020BF
:1005C0000026002040B1054900220123CA600B70BB
:1005D000C1E90102104670470E2070470820002034
:1005E00000281FD000291DD00F4A1278002A19D0E8
:1005F0000A88112A0ED0302A06D0322A07D0332A90
:1006000010D1091D01F0A4BF091D02F019B8091D80
:1006100001F014BF8988B0F85E22914202D1002116
:1006200080F85B12704700000820002010B50B46D0
:10063000040009D0124A107840B1D06830B194F863
:100640005B0228B1112010BD0E2010BD082010BD86
:10065000A4F85E320020906084F85C0284F85A02AC
:1006600084F8590207482246012100682060184694
:1006700094DF0028EBD1012084F85B02002010BD3C
:10068000082000200026002010B5044601F040FE9E
:10069000204600F011FA21460448FFF7A1FF214649
:1006A0000248BDE81040103800F086B8342300201E
:1006B00070B5054608780C4601280AD002281CD0DF
:1006C000032826D113A0FFF79BFABDE8704002F083
:1006D000E9B8618804F10A02284600F039F808B147
:1006E000FFF76CFD284600F0D7F808B1FFF766FD6C
:1006F000BDE870400BA0FFF783BA002506E06068F4
:10070000405DFFF787FE0028F9D16D1C207AA842D2
:10071000F5D870BD446973636F6E6E65637465640C
:100720000D0A000054686520646576696365206879
:10073000617320746865204E6F726469632055414F
:10074000525420536572766963650D0A00000000FB
:1007500048B141802AB15188C18011888180918837
:100760000181002070470E207047000030B5114B0A
:100770000D4604000FCB85B08DE80F0018D0BDB139
:100780002146684663DF002810D120788DF81200DA
:100790000120ADF810004FF6FF7060802868E0601F
:1007A0000020A080208104A8FFF7ECFE05B030BD3A
:1007B0000E20FBE7243002001FB500282ED00029B0
:1007C0002CD042884FF6FF739A4202D08C88A24206
:1007D00024D10C88112C14D0392C1FD18288002AE6
:1007E0001CD04B89934219D1C268002A16D002222C
:1007F0008DF8002001F110020192897B8DF808101C
:1008000009E08988914209D1C168002906D00321F5
:100810008DF800104380C268694690471FBD7FB5C0
:10082000002200920192029203920B7801F10E02D3
:10083000002B2FD18B88012B2CD18B790478A342EC
:1008400028D1002317E003EBC30432F81450022D23
:1008500002D0032D0ED105E002EB44042489ADF84B
:100860000E4007E002EB44042589ADF80A50648984
:10087000ADF80C405B1C0C7A9C42E4D8C268002A9C
:1008800008D04988ADF8021001218DF80010C26827
:10089000694690477FBD00001FB5010019D0488808
:1008A000A0F57F42FF3A16D0C988A1B101228DF888
:1008B0000C200A4B00228DF80D20D3E90423CDE94A
:1008C0000023ADF8021003A9029169469CDF04B031
:1008D00010BD0E20FBE70820F9E7000024300200DD
:1008E0003EB518B1142A03D907203EBD0E203EBDE7
:1008F0004388A3F57F44FF3C0DD0084D38CD8DE8EB
:10090000380003890291ADF80230ADF80620408826
:1009100069469CDF3EBD08203EBD0000403002001D
:1009200000B5134889B00023406807905022114950
:1009300007A802F0A7F808B1FFF740FC6A460021BB
:10094000012002F089F808B1FFF738FC1720ADF854
:100950001000684602F076F808B1FFF72FFC064851
:1009600002F066F8002801D0FFF728FC09B000BDAE
:10097000A42F02008C200020890602000149085C97
:1009800070470000F12F02000649095C4FF0A040BB
:10099000D0F81005C84010F0010000D0012080F010
:1009A00001007047F12F020007490B5C4FF0A04196
:1009B000D1F804250120984020EA0203C1F8083547
:1009C0001040C1F80C057047ED2F02000249085C89
:1009D000012101F0F8BB0000ED2F02000249085C84
:1009E000002101F0F0BB0000ED2F02000649095C78
:1009F0004FF0A040D0F80405C84010F0010000D02E
:100A0000012080F001007047ED2F02007CB500242A
:100A1000084E25460122305D0095002311460195C0
:100A200001F066FB641C042CF4D3BDE87C4000F0AC
:100A300003B80000ED2F020010B500242046FFF798
:100A4000C5FF641C042CF9D310BD10B5002420464A
:100A5000FFF7C4FF641C042CF9D310BD10B5024687
:100A6000064B4FF0FF3000215C5C944201D10846F8
:100A700010BD491C0429F7D310BD0000F12F02005E
:100A800070B50C4E0C004FF0000530600BD001200B
:100A900000F0A4F808B1022004E0002000F09EF865
:100AA00000B10B202070706810B9FFF70CFB0546F1
:100AB000284670BD0020002010B51A4C01886068DF
:100AC00010290ED011292BD1401E606028D1FFF7CC
:100AD000FAFA002824D02168002921D0BDE810406E
:100AE0000847D0B900210122084600F09BF808B160
:100AF00007280FD107220221012000F093F808B146
:100B0000072807D104220221002000F08BF820B131
:100B1000072802D0216801B188476068401C6060E6
:100B200010BD00000020002010B5002000F0AEF93C
:100B300008B1062806D1012000F0A8F908B106285E
:100B400000D1002010BD00002DE9F0470D46814680
:100B5000FFF784FF0446042838D2DFF878801C4869
:100B60001D4EA8F1100735B3012D0ED0022D2DD149
:100B700004EB440030444578002D27D0F968002963
:100B800024D02846BDE8F047084704EB4401755CD3
:100B90000E44717859B179680E4A01EB8101490020
:100BA0000E3A8068FFF788FB08B987F80290B178A1
:100BB00008F80410E0E78068FFF7C2FB04EB44018B
:100BC000314418F804008D78A842D5D0BDE8F087EC
:100BD000F82F0200FC1F0020D4250020FFF7D4BE10
:100BE00010B504280ED00A2818D1002000F03CF8D7
:100BF00008B1FFF7E3FAFFF797FF08B1FFF7DEFA56
:100C000032DF05E006481321408876DF082805D04A
:100C1000002803D0BDE81040FFF7D0BA10BD000097
:100C20002423002070B50023042810D20D4D00EBC2
:100C30004004012A02D101290CD00022094E00EB08
:100C40004000304461B1012906D0022906D00723B3
:100C5000184670BD0E30C2B22A55F9E74270F7E768
:100C60008270F5E7D4250020044A01460020127A5C
:100C7000D20702D0084600F04FB87047EC1F0020A2
:100C80002DE9F04106461F4800240F464160C0E9A7
:100C90000262B0071FD50025012211462846FFF742
:100CA000C1FF6D1C0446042D02D2002CF4D012E0CA
:100CB0008CB97A0804211448FFF736FA04000AD1E7
:100CC000FFF720FA040006D10F48104A0021001F48
:100CD000FFF7A8FA0446F00701D0FFF797FE74B9B2
:100CE00009480B4A00210C38FFF79CFA040006D192
:100CF0000548084A01210838FFF794FA04462046BF
:100D0000BDE8F081EC1F0020043002009D0E0200BF
:100D10005D150200FD0002002DE9F047594C054623
:100D20000026607818B100206070FFF785FE012072
:100D3000554F4FF47A694FF4C87A4FF06408182D74
:100D40002CD2DFE805F0890C0C2C3A4751565A6139
:100D50005A619B6969696969898C8F929B9B0020A4
:100D6000FFF744FE00284FF0000008D0FFF72EFEEA
:100D7000022D02D14FF4E16006E0484604E0FFF79F
:100D80002DFE022D2ED05046B0FBF8F12570606884
:100D9000414300223868FFF78FFA064659E00020E9
:100DA000FFF724FE28B10020FFF710FE4FF4487033
:100DB000EAE70020FFF712FE14E00020FFF716FE1E
:100DC00000284FF0000002D0FFF700FED5E7FFF744
:100DD00005FED8E70020FFF709FE0028E9D0002033
:100DE000FFF7F4FDC820CFE70020FFF7DDFD2570F9
:100DF00007E000203FE025702BE060700120FFF746
:100E0000D3FD00226168C5E760700120FFF7CCFDCB
:100E1000606800EB8001BCE77868FFF791FA06464E
:100E2000D5F1110000D01EB10220FFF7CFFD10E078
:100E300001280BD9C82110FB01F1B1FBF8F1606862
:100E4000002241437868FFF737FA06460220FFF791
:100E5000C5FD3046BDE8F087FFF7EEFDCBE7FFF7B5
:100E6000EBFDC6E7FFF7E8FD04E0FFF7E5FD002036
:100E7000FFF7B4FD0120FFF7B1FDBCE7FFF7E5FD8B
:100E8000B9E70000EC1F0020F82F020010B5FFF7B3
:100E900075FD032101F075F9002010BD00780221D5
:100EA000FFF752BE05494FF0FF32082841F82020D5
:100EB00002D3084480F8482070470000B42800207E
:100EC000F0B54FF0FF3512B10023082601E00823EA
:100ED0000C260C4C05E000BF54F823707F1C04D096
:100EE0005B1CB342F8D32846F0BD26185DB286F8E5
:100EF000305044F82310002AF5D1E11881F8480059
:100F0000F1E70000B42800200249084490F93000BD
:100F100070470000B428002008B5024690F85A0235
:100F20000B4600EBC00101EB001002EB800092F8D1
:100F3000592242B1521ED2B202EBC20100EB410271
:100F4000518A491C00E0C188ADF800100089ADF855
:100F500002006946184696DF08BD000070B5084CCF
:100F6000050009D010342168002907D008682060E6
:100F7000496828468847F6E70834F4E770BD000062
:100F8000A02800202DE9F05F26484168F1B3DFF882
:100F900098B00E688146DBF8004087688078E11BD6
:100FA00021F07F45ED1CB0B9DFF880804FF4803030
:100FB000C8F84403C8F804031120FEF77FFB112092
:100FC000FEF792FB4FF0010AC8F800A02F2000F0B6
:100FD00049FC89F802A0B54200D23546124BE81907
:100FE0003C3320F07F401860DBF800105A46091BA4
:100FF00021F07F41001B20F07F40C91C81420FD9A6
:10100000106818602F2000F02DFC00E004E0BDE81F
:10101000F05F1120FEF77EBBBDE8F05F01F0B8BBCA
:10102000BDE8F09F2C200020041501400010014075
:1010300001460148FFF7F3BB242300202DE9F843C4
:10104000054690F85A020F4600EBC00101EB001074
:1010500005EB800695F85942914604EBC40006EB77
:1010600040013279601C0A31904226D16B46002241
:10107000284600F0ABF918B310E0401EA04201D1A1
:10108000002004E004EBC40006EB40001C30804666
:1010900002466B46284600F099F930B100203870BE
:1010A0006946484697DFBDE8F88395F859024146FE
:1010B000401C641C85F85902E4B23079A042DCD8A7
:1010C000012038700020EEE72DE9F04100260125CF
:1010D000144C22E06068226900EBC607387805FAF4
:1010E00000F1114217D08A43226100F00FFD024641
:1010F0003878E36805FA00F1194002FA00F39942E2
:1011000009D17978012901D0012100E00021514065
:101110007A6802B19047761CF6B220788642D9D31D
:10112000BDE8F081182000202DE9F047894690F8AD
:101130005A12904601EBC10202EB011100EB81074C
:10114000384601F009FB060041D0224CA068062871
:101150003DD200EBC000204D00EB400005EB8000CD
:101160006422A0F802803946001DFEF765F90027C9
:10117000B9F1000F07D0A06800EBC00000EB400001
:1011800005F8207007E0A168022001EBC10101EB26
:10119000410105F82100A06800EBC00101EB41010D
:1011A00005EB8101401C8E66A060E16888420ED18B
:1011B000002608E006EBC60000EB400005EB8000CF
:1011C000816E8847761CE0688642F3D3A760BDE84D
:1011D000F0870000082000201826002030B50D46BA
:1011E00090F85A12144601EBC10202EB01119BB0B8
:1011F00000EB810001F0B0FA030007D0ADF8024027
:1012000001208DF800006846019598471BB030BD5D
:101210000E4910B50A784C780023A24212D0521C15
:10122000D2B20A70022A00D10B70084A0B78183229
:1012300052F8232002608868104420F07F408860C4
:10124000012010BD0360002010BD00002C200020F4
:10125000826883881A4003689A5C0A708168491C16
:1012600081607047C26883881A4003689954C168D6
:10127000491CC160704710B50446C0B2FFF7CAF8F8
:10128000204610BD2DE9F041124E07460125BD4014
:101290003068FFF755F800280DD10F4C206928421F
:1012A00007D1384600F032FC0028E06805D028431A
:1012B00004E0A8432061BDE8F081A843E060206914
:1012C00028432061A1683068BDE8F0410022FEF7A4
:1012D000F3BF00005430020018200020F8B51C4C69
:1012E0002078002832D0E068002658B100256078C8
:1012F00000282BD1684648DF052805D030B1FEF71D
:101300005DFF0AE00125F2E7012606E0009800F003
:101310002BFB216909B1009888479DB960780028A6
:1013200014D16088ADF800006946A06861DF052827
:1013300003D020B1FEF742FF04E0012502E0D4E92A
:1013400002018847002ED2D0002DE6D0F8BD000063
:101350006020002070B50E460446007918494FF40D
:10136000A27501EB4010017F2068A1B14FF4887194
:1013700000F0C8FF4FF49071206800F0C3FF4FF4F5
:101380009271206800F0BEFF2946206800F0BAFF85
:101390000C49206809E04FF48E7100F0A2FF294645
:1013A000206800F09EFF08492068C0F804132068F8
:1013B00000F0FBFA3146BDE8704000F0DABA0000F8
:1013C0000C290020100302008000020010B50989DA
:1013D0002AB1D088491C814218D1002010BD90F854
:1013E0005A2202EBC20404EB021200EB82021289C1
:1013F0009142F2D0491C198090F85A1201EBC102B7
:1014000002EB011100EB8100008902E01980D08815
:10141000401E5880012010BD2DE9F8430E4681463C
:10142000002401F1100561E029192F5D4878022898
:101430000AD0032808D0042824D0052822D0062862
:101440003ED007283CD04FE04FF0000816E000BF28
:1014500004EB4800411902206A46891C64DF58B930
:10146000BDF80010B9F80000814205D19DF80210C6
:1014700099F80200814234D008F10108B8EB570F07
:10148000E6D331E04FF0000816E000BF04EB88001F
:10149000411902206A46891C64DF58B9BDF8001062
:1014A000B9F80000814205D19DF8021099F80200B8
:1014B000814216D008F10108B8EB970FE6D313E08C
:1014C00010206A46891C64DF70B9BDF80010B9F8B5
:1014D0000000814208D19DF8021099F80200814273
:1014E00002D10120BDE8F8833C44641CF07BB4EBDE
:1014F000D00F99D30020F5E702490C20C1F800076E
:1015000070470000700000504FF0A040D0F8100568
:10151000C0F30070704710B501F08EF9BDE81040BF
:10152000FFF7EABF10B50C4C4FF4806118B10128E9
:1015300008D0084610BD0849002000F097FBB4F918
:10154000000005E0A11C012000F090FBB4F90200AE
:101550000028EFDA002010BDE81F00200348017AC0
:10156000C90702D00078FFF7D7BB7047EC1F0020F7
:101570002DE9F043264CA4F110092278D9F8048013
:1015800099F80350404694F801C0D9F8086031E05A
:1015900002EB42036168521C01EBC301A378D2B293
:1015A000934200D100220B78022B02D0032B21D1D1
:1015B0001DE003464F68194603E0B94203D00B46CD
:1015C000C969B9B1F9E7A9B18B4205D1C06918B9A8
:1015D000104E0125B56000260F68C969D96149B16F
:1015E0000B683B440B6005E00174C06900E000211A
:1015F0000028F9D19445CBD1C9E9010689F80350F7
:10160000404502D00120BDE8F0830020FBE7000048
:101610003C200020001001402DE9F0412A4F0446F3
:10162000002607F11005D7F804803EE002D02046DE
:10163000E4691DE02878696800EB4002401CC0B2F4
:1016400001EBC2012870AA78904200D12E700A786E
:101650004868012A2BD1027C4ABB8A684260CA686A
:1016600082600A69C26049698161F97801B14660A6
:101670004368BA68DFF854C0991A21F07F41614588
:1016800002D28268114406E0D11A826821F07F41BB
:101690008A4202D9511A016000E0066046600121C9
:1016A00086600174C66101F06BFA002CBED1287807
:1016B00069788842BED17968414502D00120BDE8F1
:1016C000F0810020FBE700002C200020FFFF7F00BE
:1016D00000238AB0264A03211846FEF7B5FD08B15B
:1016E000FEF76CFD182223496846FDF7A5FE224847
:1016F000069022494FF48070CDE907010990072335
:101700001F4A06A96846FEF72BFE08B1FEF756FDF4
:101710001C4A40F6CD410120FFF7B2FA08B1FEF7AE
:101720004DFD69460020FFF7ABF908B1FEF746FD15
:101730001548FEF747FF08B1FEF740FDFFF7F0F848
:10174000124800900A4869464830FFF70FF808B180
:10175000FEF734FDFFF7DFFE0DA0FEF751FA01F0B2
:10176000A1F83EDF0028FCD0FEF728FDF9E70000D5
:10177000DC220020BC2F0200DC200020DC21002025
:101780001D2A0200E10B020031100200B106020026
:10179000556172745F63205363616E20737461726C
:1017A0007465640D0A000000C20800F00703012000
:1017B000895C98400840704700F18040006800282C
:1017C00000D00120704708B500F180400021016081
:1017D0000068009008BD000000283ED01F49204A44
:1017E000096800BF00BF00BF00BF00BF00BF00BF4F
:1017F00000BF91422FD000BF00BF00BF00BF00BF9D
:1018000000BF00BF00BF00BF00BF00BF00BF00BFE0
:1018100000BF00BF00BF00BF00BF00BF00BF00BFD0
:1018200000BF00BF00BF00BF00BF00BF00BF00BFC0
:1018300000BF00BF00BF00BF00BF00BF00BF00BFB0
:1018400000BF00BF00BF00BF00BF00BF00BF00BFA0
:1018500000BF00BF00BF401EC3D1704774200020EE
:101860000024F40000283ED01F49204A096800BF28
:1018700000BF00BF00BF00BF00BF00BF00BF91425C
:101880002FD000BF00BF00BF00BF00BF00BF00BF20
:1018900000BF00BF00BF00BF00BF00BF00BF00BF50
:1018A00000BF00BF00BF00BF00BF00BF00BF00BF40
:1018B00000BF00BF00BF00BF00BF00BF00BF00BF30
:1018C00000BF00BF00BF00BF00BF00BF00BF00BF20
:1018D00000BF00BF00BF00BF00BF00BF00BF00BF10
:1018E00000BF401EC3D17047742000200024F400C4
:1018F00070B50F4C0025207808B1852516E0002131
:10190000A16061602161E1604FF0E020D0F800014A
:10191000012610F0010F03D10721002000F029F863
:1019200001F0E2F808B9034806602670284670BD49
:10193000A02800201805004038B500208DF80000D0
:101940006846FEF785FD074C207808B9FFF7D0FF01
:10195000E068401CE0600120A0709DF80000FEF7E8
:101960009BFD38BDA0280020002801D1FFF7F6BA62
:1019700070474907090E002806DA00F00F0202F14D
:10198000E02282F8141D03E000F1E02282F8001446
:1019900000F01F02012191404009800000F1E02089
:1019A000C0F88012C0F800117047000B40B27047B9
:1019B0002DE9F0418846054600F0B6FE234E00288A
:1019C00028461AD0FFF7A0FA304490F84800800962
:1019D000032802D001280ED007E04FF0A040D0F835
:1019E0001005E84010F0010F05D003212846BDE89E
:1019F000F04100F0D7BB0221F8E700F0A1FE00287B
:101A000022D02846FFF780FA04464FF4807000EB9E
:101A100084000F4F81B207EB8400D0F8102542F00C
:101A20000102C0F81025084600F0ECFBB8F1000FE9
:101A30000AD02846FFF768FA56F82000002803D09D
:101A40000120A040C7F80403BDE8F081B4280020BD
:101A5000006000402DE9FC41DFF8A480044608EB5B
:101A60000400002790F930001346C0170E46401CB2
:101A700001D0082741E0F27819462046FFF720FA06
:101A80000546401C38D0B07850B14FF0A04000EB74
:101A90008400D0F8001721F00201C0F8001707E019
:101AA00000217378204600910A46019100F032FB34
:101AB000F078C0B11348317800EB8500D0F81025DC
:101AC000114B1A40C0F810254FF4F8524FF4403330
:101AD00002EA042203EA01410A43D0F810150A433E
:101AE000C0F8102509E008EB0500327810F8481F0F
:101AF00041EA8211017000E004273846BDE8FC810C
:101B0000B428002000600040FFE0FCFF4FF0A0413F
:101B1000D1F81015C14011F0010000D0012070472C
:101B200070B5144D95F8540008B1082070BD002020
:101B3000411E2A18401CC0B282F830102028F8D369
:101B400000242046FFF7AEF9641CE4B20C2CF8D355
:101B500007210620FFF70DFF4FF4BE7000F052FB87
:101B600005494FF00040C1F80403012085F85400F6
:101B7000002070BDB428002000600040034890F8A9
:101B80005400002800D0012070470000B428002035
:101B90000121B1EB507F01D1012070470020704737
:101BA00070B50F4A05460C4692F8290008B111207D
:101BB00070BD02EB4501087E18B912F82A0F401CCF
:101BC0001070E0790876207A48762146284600F0A1
:101BD00033FB227AE179284600F062FB002070BDD9
:101BE0002C2900202DE9F0411C4C054694F82800D2
:101BF00010B10820BDE8F08109B115B102E007205D
:101C0000F8E7174D44F8101B164928780860091D9D
:101C100068780860E878E07601272776002060760B
:101C2000A0762060104E20776FF00040C6F80803C1
:101C30004FF4827000F046FBA9780720FFF799FE69
:101C40000220C6F80403E07E10B10120C6F80403A8
:101C50000448F03807600020CCE700002C29002061
:101C600050300200F0750040007000402DE9F04156
:101C70002C4D80460B4695F8290010B11120BDE887
:101C8000F0810124284E85F829400322C6F8082354
:101C90002146184600F0C8FA95F82A00012809D90B
:101CA000002700221146384600F0FAFA7F1CFFB2E6
:101CB000082FF6D305EB4800427E017E404600F037
:101CC000EFFA002734601848001D046042F21074D7
:101CD0004FF4827800E0641E404600F0EBFA08B949
:101CE000002CF8D1404600F0EDFA95F82A000128C2
:101CF0000BD9002405EB4400427E017E204600F013
:101D0000CFFA641CE4B2082CF4D395F82B0008B188
:101D1000032000E00220C6F80403384685F8297045
:101D2000ADE700002C290020007000402DE9F041B3
:101D300005460079164F904607EB40140E46E07EAC
:101D400010B10820BDE8F081707F20772846FEF7AB
:101D5000BDFB5FEA080060603169216003D0317F1C
:101D60002846FFF7F7FA287907EB4010007F002894
:101D7000286801D0082100E00421C0F800150020E7
:101D8000E0752076A0750121E176A076DAE7000003
:101D90000C2900202DE9F04105460079284E904697
:101DA00006EB40140F46207F18B10846FFF7F0FEFF
:101DB00080B1626800234FF404704FF4017172B176
:101DC0002A7906EB4212127F002A2A6805D0C2F84F
:101DD000080304E01020BDE8F081C2F80813E27D9A
:101DE000B2B1227E7AB162685AB12A7906EB421208
:101DF000127F1AB12968C1F8040302E02868C0F80C
:101E000004131120E7E72761012384F8188005E017
:101E100084F817800020E7606076207628794246B3
:101E200006EB40103946007F0028284603D0BDE865
:101E3000F04100F073B8BDE8F04100F01BB80000BD
:101E40000C29002070B504460079094D05EB4010BF
:101E5000017F00290AD1807E002807D1204600F0AA
:101E6000DAFC2179012005EB4111887670BD000074
:101E70000C2900202DE9F05F04460079264901EB8A
:101E80004015A87E184302D1204600F0C4FC6868C3
:101E90000028206806D04FF40171C0F80413002018
:101EA000BDE8F09F4FF4A276314600F01AFAB14631
:101EB0004FF4927A4FF4847B5146206800F00CFA7C
:101EC00006465946206800F007FA804649462068D1
:101ED00000F002FA074648EA07003043ECD056EA21
:101EE000070007D12946206800F070FCE87D697E74
:101EF0008842E1D80020E8750EB10320D0E70FB189
:101F00000F20CDE7A97E01200029216801D00860BB
:101F1000C5E74860C3E700000C2900202DE9F05F09
:101F2000894604464FF488759A4690460026006814
:101F3000294600F0E7F94FF4A2773946206800F00F
:101F4000E1F92068C0F83495C0F838852068BAF106
:101F5000000F14D0D0F8001241F02001C0F8001298
:101F60002179DFF8648008EB4110406850B12068A7
:101F70004FF40471C0F804133046BDE8F09F01210E
:101F80000160EDE7AA46B9464FF4927B51462068BE
:101F900000F0B3F907464946206800F0AEF905465F
:101FA0005946206800F0A9F9014647EA05000843B0
:101FB000ECD02379002208EB4310C27501B103264F
:101FC000002DD9D00F26D7E70C2900202DE9F047A6
:101FD000054600793F4E904606EB40140F46207FA1
:101FE00018B10846FFF7D4FD30B1284600F074F868
:101FF00020B11120BDE8F0871020FBE784F816809F
:10200000A7600027A78228794FF0010806EB40144B
:102010003E46207F0028286825D04FF49079494615
:1020200000F070F94FF4AC7A5146286800F06AF974
:102030002868A17DA268C0F84425C0F84815286822
:10204000C0F808806068F0B94946286800F055F982
:1020500080465146286800F050F958EA0001F3D054
:1020600058BBA7750FE04FF48E7A514600F039F94E
:102070002868C0F808802146286800F005FE6168DD
:102080004FF4807089B13046B4E75146286800F0BB
:1020900023F910B9A08A4845F7D1A08A484505D050
:1020A0002146286800F0F0FD00E08146A08AA17D6D
:1020B0008842EAD3A08A484501D10F26D1E751468C
:1020C000286800F009F90028F9D02868C0F80C80C9
:1020D000C7E700000C2900200079044901EB4010FB
:1020E000807D002800D00120704700000C290020CE
:1020F00070B541EA4201DDE904564FF0A04441EADF
:10210000830141EA052104EB800041EA0641C0F861
:10211000001770BD70B541EA4201DDE904564FF089
:10212000A04441EA830141EA052104EB800041EA31
:102130000641C0F8001770BD70B541EA4201DDE903
:1021400004564FF0A04441EA830141EA052104EB23
:10215000800041EA0641C0F8001770BD1CB500229E
:102160000B46009211460192FFF7E6FF1CBD1CB51D
:10217000002100910B46012201911146FFF7DCFF7F
:102180001CBD4FF0A04202EB8000D0F8002722F4E3
:102190004032C0F80027D0F8002742EA0141C0F8D9
:1021A000001770474FF0A04202EB8000D0F80027E4
:1021B00022F44032C0F80027D0F8002742EA01415B
:1021C000C0F80017704701224FF0A043824011B1C0
:1021D000C3F808257047C3F80C25704718B5084B9D
:1021E0006C4601441B68009306E000BF54F82030A1
:1021F000D3F81035401C08C28142F7D818BD000042
:102200004C300200034908B5084400210160006811
:10221000009008BD0060004002494058012800D0ED
:102220000020704700600040024A1060101D0160ED
:10223000704700002C76004010B50A784B783024A7
:1022400002F0030204EA03131A438B784FF4E064AC
:1022500004EA03231A43CB784FF4805404EA03338F
:102260001A430B794FF4E02404EA03431A434B79F1
:102270004FF4801404EA03531A438B79240104EACF
:1022800003631A43030105481844C0F81825CA79A6
:10229000097AC0F81415C0F8102510BD0070004070
:1022A000030103481844C0F81425C0F810157047FE
:1022B0000070004002494058002800D001207047BB
:1022C00000700040034908B508440022026000681D
:1022D000009008BD007000404058002800D0012048
:1022E000704708B5002242504058009008BDD0F811
:1022F0000403084000D0012070474058002800D057
:102300000120704708B5002242504058009008BD97
:102310003EB50446011D00881F2856D027DC102832
:102320002FD013284BD01B283BD01D281ED1091DB0
:102330000C462C48FFF770F8002817D0294A204691
:10234000083202F108018CDF00280FD1FEF78CFC67
:1023500008B1FDF733FF2079A27961798DE8070094
:10236000E378A278617820A0FDF74AFC3EBD3B28C7
:102370002FD0552831D05628F8D1A088132176DFE8
:1023800009E00720FEF770FC08B1FDF717FFA188F0
:102390002148FEF74BF90028E8D0BDE83E40FDF7A4
:1023A0000DBF0879022806D00328DFD1BDE83E40E2
:1023B0001AA0FDF725BCBDE83E4000F073BA00232B
:1023C000A0881A4685217FDFE5E731F8040B75DF29
:1023D000E1E7A088132176DFDDE7A0881721ADDFD4
:1023E000D9E70000A42F0200436F6E6E6563746925
:1023F0006E6720746F2074617267657420253032B7
:1024000078253032782530327825303278253032D0
:1024100078253032780D0A0034230020436F6E6E29
:10242000656374696F6E205265717565737420748D
:10243000696D6564206F75742E0D0A002DE9F84FE3
:1024400005460C460888B5F85E12884259D195F8C1
:102450005A02DFF8F8A000EBC00101EB001005EB19
:10246000800160884FF003094FF00008F0BBE68858
:102470000879A21DF3B250FA86F6052E01D803445E
:1024800000E005230B7100261CE000BF00EBC00339
:1024900006EB860702EB470701EB4303D7F802C0C0
:1024A000C3F80AC0D7F806C0C3F80EC07F895F82A0
:1024B000A3F81480A3F81680A3F81880401CA3F892
:1024C0001A80761C0B798342E0D895F85A2200EBEB
:1024D000C00002EBC20303EB021205EB820231F8EB
:1024E0001000128990420ED2087900E00BE0052816
:1024F00009D085F8590221882846FEF70DFD010014
:102500000AD1BDE8F88F85F85982228869462846A5
:10251000FEF794FD01000BD085F85B8222882846E7
:10252000FEF75CFE8AF800902188AAF80210E8E71E
:102530009DF800000028E4D0228801212846FEF7FB
:10254000F3FD2188284600F0B1F8DAE718260020CC
:10255000F8B505460C460888B5F85E1288425DD18C
:1025600095F85A02A61D00EBC00101EB001005EB27
:10257000800395F85902618800EBC00003EB40002E
:102580000A3039B329E000BF01EB410206EB4202F9
:102590009788B7F5245F0CD06FF4245C17EB0C0719
:1025A0000AD0012F02D0072F0BD108E052884281B8
:1025B00007E05288828104E05288C28101E052889B
:1025C000028242892AB182891AB1C2890AB1028A79
:1025D0001AB9491C32888A42D6D800268DF8006084
:1025E00095F859021979401C884203D101208DF8D1
:1025F000000018E085F85902228869462846FEF74F
:102600001DFD01000BD085F85B6222882846FEF78D
:10261000E5FD0A480321017021884180F8BD9DF83D
:1026200000000028FAD0228801212846FEF77CFD10
:102630002188284600F03AF8F8BD0000182600204E
:1026400070B505460C4690F85A02228800EBC0018E
:1026500001EB001005EB8001B5F85E02824222D149
:10266000608848B100212846FEF75EFD2188284693
:10267000BDE8704000F01AB8A2680A60E068C1F8CE
:10268000060021882846FEF747FC01000BD00020F9
:1026900085F85B0222882846FEF7A0FD0248032148
:1026A00001702188418070BD182600202DE9F0417D
:1026B000044690F85C020E46401C1949C0B284F8EA
:1026C0005C02C9680327174D4FF0000E884224D2E0
:1026D00084F859E294F85A02401CC0B200EBC001E1
:1026E00001EB001104EB810284F85A02A5F11801F4
:1026F00001EB800001210068106082F804E03046A0
:1027000094DF010007D084F85BE232462046FEF7F2
:1027100065FD2F706E80BDE8F08184F85BE2F8E71C
:1027200008200020182600200449084490F93000B1
:10273000082801DB0120704700207047B4280020E2
:102740000449084490F93000082801D2012070475C
:1027500000207047B428002070B50C4B00210A4AB5
:10276000DC680DE002EB81058678AD78B54206D1D4
:1027700032F821500688B54201D1586870BD491C15
:10278000A142EFD3002070BD0026002008200020C9
:1027900070B5012670044FF0E0210025C1F88001DA
:1027A000084C4010C4F84803C4F8080366602F20A2
:1027B000FFF758F8A660044C2F20A560FFF752F8E9
:1027C000A57070BD001001402C20002070B505469A
:1027D000C87D0C4600284FF4847128460AD0FFF7C4
:1027E00080FDD5F81805627EE1688854607E401C43
:1027F000607670BDFFF775FDD5F8180570BD1FB583
:1028000001238DF800308DF808100192D0E90012F4
:10281000684690471FBD10B5044600684FF492719A
:10282000FFF75FFD4FF484712068FFF75AFD2068C1
:102830000121016010BD704710B5184988B00DF135
:102840000C0C01C9069001208DF818001CC98DE8F8
:102850001C0002228DF802208DF803001AC98CE8B2
:102860001A008DF80E208DF80F000D4906A8FFF70D
:10287000B9F908B1FDF7A2FC69460020FFF790F90D
:1028800008B1FDF79BFC03A90120FFF789F9002897
:1028900001D0FDF793FC08B010BD0000D42F02005A
:1028A0003728020010B507488ADF08B1FDF786FC1B
:1028B0000120FEF7D9F9002803D0BDE81040FDF74C
:1028C0007DBC10BDB42F020010B50446FDF7B8F969
:1028D00040B1002C09DA04F00F0000F1E02090F87C
:1028E000140D06E042F2010010BD04F1E02090F862
:1028F00000044109082914D299B1012911D00429F1
:102900000FD005290DD00B480122816861B1610902
:1029100050F8213004F01F04A240134340F8213046
:1029200005E042F2020010BD2046FCF7E8FE002060
:1029300010BD00009C290020F0B585B00020FEF7F6
:10294000F1FD05460120FEF7EDFD0446FEF7DCFD36
:10295000064603462246294623A0FDF751F91327D0
:1029600014216846FCF781FD4A208DF800006F2095
:102970008DF8010079208DF802005F208DF80300AA
:1029800076208DF8040061208DF805006C208DF80C
:1029900006003A208DF8070020208DF808008DF8F9
:1029A0000950280A8DF80A00280C8DF80B00280E13
:1029B0008DF80C008DF80D40200A8DF80E00200CCB
:1029C0008DF80F00200E8DF810008DF811600D208D
:1029D0008DF812003A4669460F48FDF781FF00283E
:1029E000F8D105B0F0BD00004A6F792076616C2007
:1029F0007365727665723A200920583A2025640979
:102A000020593A2025640920427574746F6E3A206B
:102A1000256409200D0A00002423002010B5FFF7CB
:102A20008BFFBDE810400148FEF7D6BEA08601002E
:102A300018B10349C860002070470E20704700009D
:102A4000602000201CB5034901910091694660DFB8
:102A50001CBD0000E81F002070B50E460546144658
:102A60001C211046FCF701FD012020800021A161FE
:102A700021752672657205B1A072002070BDFDF748
:102A80008BBB00002DE9F041074619B188074FF0D4
:102A9000000402D00720BDE8F081114D4FF0E02086
:102AA0000126A9606A806B60D0F8000110F0010F68
:102AB00003D034460020FCF70CFE0A49384610DFEC
:102AC000070005D014B10020FCF719FE3846E2E7F4
:102AD0002E70FEF731FFBDE8F0411620FFF7F4BE7F
:102AE000602000207F2A0200014800787047000023
:102AF000602000202DE9F84F204C00256846D4E9DD
:102B000001B6FEF785FB8046FEF732FD0746A94673
:102B1000B8F1000F25D00023009ACC46606819E078
:102B200007680146974202D9BA1A026014E0C1F858
:102B300000C0D1F80C80D21BC8693B448A46B8F16A
:102B4000000F07D0F71827F07F47C1E90178CAF8CE
:102B50001C500D460028E3D160602846FEF75CFD5E
:102B600004E02846FEF758FD00B917B15846FEF7B5
:102B700009FA84F80390BDE8F88F00002C200020AB
:102B80000D4B10B5596831B102680C68A24204D8E7
:102B9000A21A0A60C161586010BD0B4603E00B46E3
:102BA000C969121B21B10C689442F8D3A41A0C60B5
:102BB0000260C161D86110BD2C2000207CB50646A2
:102BC00000240D468DF800406846FDF741FC01A841
:102BD00000F0D0F970B10570094946609DF8040015
:102BE00048709DF80000FDF757FC1420FCF792FD9B
:102BF00020467CBD04249DF80000FDF74DFCF7E75E
:102C00003C2000202DE9F0411D4D6C68002C35D092
:102C10001C4800270068A968B846401A20F07F4683
:102C20002068B04215D82246361A0744E469107C61
:102C300068B182F81080EB6833B1D2E9050198479A
:102C400028B1FDF7BBFA02E0D2E905108847002C55
:102C5000E6D129786878814206D1401CC0B26870FC
:102C6000022801D185F8018005486978183040F8BC
:102C70002170BDE8F0411420FCF74CBDBDE8F081A7
:102C80002C2000200415014070B50C4605464FF479
:102C90008E71FFF726FBA18AA068415CA08A401CC8
:102CA000A082C5F81C1570BD1FB500228DF800204C
:102CB0008DF80810816801918275D0E9001268468C
:102CC00090471FBD7CB50178244D81B301290BD0FD
:102CD00002292BD18DF80010C068691C01900122D7
:102CE000C81DFFF757F82EE0406801781C48FDF733
:102CF0008BFA1B4C012618B18DF80060019006E09C
:102D0000A068E168814205D000208DF80000696864
:102D100068468847A068E168081AA188884207D8F1
:102D20000E490122491CC81DFFF734F87CBD01E0A3
:102D3000AE70FBE70A4809491030FDF74AFA30B196
:102D400003208DF80000696868468847EEE703496C
:102D5000012201F10800FFF739F9E7E74C200020D4
:102D60007C2900202DE9FF470C4605464FF40071F1
:102D7000FFF7BDFA01274FF40178002618B34FF48E
:102D8000927949462846FFF7A7FAE0B14946284616
:102D9000FFF7A7FAC5F80883A07E00B96F6002208C
:102DA0008DF80000D5F88004C5F880040390E07D1C
:102DB0008DF80800E0680190E6752676D4E90012E7
:102DC0006846904727E004212846FFF790FA10B3A1
:102DD0004FF484712846FFF77FFAE0B12146284678
:102DE000FFF7F4FCE07D617E884214D1207E38B18B
:102DF000617EE268E0752069E0602676667607E02D
:102E0000A07E00B96F60C5F80883E675617EE26850
:102E10002046FFF7F4FC4FF48E7841462846FFF732
:102E20005BFA88B1A08AA17D884204D22146284657
:102E3000FFF72AFF08E041462846FFF752FAA17D36
:102E400011B12046FFF730FF4FF4A27841462846E3
:102E5000FFF742FA002812D041462846FFF741FA10
:102E6000A07E00B12F60E07D002808D0E675617E6D
:102E7000E26804B02046BDE8F047FFF7C0BCBDE8FB
:102E8000FF872DE9FF410C464FF4927705463946FE
:102E9000FFF733FA0026C0B139462846FFF732FA69
:102EA00002208DF80000D5F88004C5F88004039056
:102EB000D5F83C058DF80800E0680190E6752676A7
:102EC000D4E900126846904724E04FF488773946E9
:102ED0002846FFF712FAE8B139462846FFF712FAFA
:102EE000D5F83C05C1B2E07D884213D1207E60B1A7
:102EF000E268D5F8000220F02000C5F80002207E2C
:102F0000E0752069E060267601E0E675E26820461B
:102F1000FFF775FC4FF4A27739462846FFF7EDF925
:102F200068B139462846FFF7EDF9E07D38B1E6751E
:102F3000D5F83C05E268C1B22046FFF760FC4FF4CB
:102F4000907631462846FFF7D8F900280FD0314651
:102F50002846FFF7D7F9A07D002808D0D5F84C0502
:102F600004B0C1B22046BDE8F041FFF79DBEBDE808
:102F7000FF8100000A4A10B553789478591CC9B2F1
:102F80008C4200D1002114788C4201D1002010BD68
:102F90000170506803EB430100EBC10010BD00005D
:102FA0003C200020010002000100000710003C004E
:102FB000000090010100A000500000000800000087
:102FC00006000000050000000700000001000000EE
:102FD00000E0D7010100070000000000020000022D
:102FE00000000000000000000200000300111213A6
:102FF000140D0E0F1000000094250020B4250020B1
:10300000E02500200D000300490B02000E00030024
:10301000490B02000F000300490B020010000300DF
:10302000490B02009ECADC240EE5A9E093F3A3B588
:103030000000406E010100000000020000000000DE
:10304000020100000000000000000000000000502D
:10305000010007005C29002003000000FFFFFFFFC4
:10306000FFFFFFFFFFFFFFFFFFFFFFFF000000006C
:10307000000000000000D601070100009C300200A3
:10308000E81F00209000000020FC01002C3102000D
:10309000782000203029000030FC010000000000F2
:1030A0000000000000000000000000000000000020
:1030B0000000000000000000000000000000000010
:1030C0000000000000000000000000000000000000
:1030D00000000000000000000000000000000000F0
:1030E00000000000000000000000000000000000E0
:1030F00000000000000000000000000000000000D0
:10310000000000000000000000200040000000005F
:1031100000000000000000000000000000000000AF
:0C31200000000000000000000090D00340
:040000050001F40101
:00000001FF
