:020000040001F9
:10F00000487A002015F401001DF401001FF40100EE
:10F0100021F4010023F4010025F4010000000000A8
:10F0200000000000000000000000000027F40100C4
:10F0300029F40100000000002BF401002DF4010070
:10F04000D1F601002FF4010011FA01002FF40100A4
:10F050002FF401002FF40100CDF401002FF4010082
:10F060002FF401002FF401002FF401002FF4010010
:10F070002FF401002FF401002FF401002FF4010000
:10F080002FF4010029F701002FF401002FF40100F3
:10F090004DF701002FF4010051F701002FF401009A
:10F0A0002FF401002FF401002FF401002FF40100D0
:10F0B0002FF401002FF40100000000000000000008
:10F0C0002FF401002FF401002FF401002FF40100B0
:10F0D0002FF401002FF401002FF4010000000000C4
:10F0E0000000000000000000000000000000000020
:10F0F0000000000000000000000000000000000010
:10F1000000000000000000000000000000000000FF
:10F1100000000000000000000000000000000000EF
:10F40000DFF80CD000F050F800480047E50B020090
:10F41000487A00200648804706480047FEE7FEE796
:10F42000FEE7FEE7FEE7FEE7FEE7FEE7FEE7FEE7B4
:10F4300075F7010001F4010040EA01039B0703D0C6
:10F4400009E008C9121F08C0042AFAD203E011F823
:10F45000013B00F8013B521EF9D27047D2B201E0E5
:10F4600000F8012B491EFBD270470022F6E710B5C9
:10F4700013460A4604461946FFF7F0FF204610BD22
:10F48000421C10F8011B0029FBD1801A704730B5CF
:10F4900004460020034600E05B1C934203D2E05C7C
:10F4A000CD5C401BF8D030BD064C074D06E0E0684F
:10F4B00040F0010394E8070098471034AC42F6D3BB
:10F4C000FFF7A2FF481D0200681D02002DE9F0476A
:10F4D00000268CB0DFF86091B0464FF480750124AF
:10F4E00037460696284601F0F3FD38B1D9F80403F3
:10F4F000204203D0284601F0E1FD26432D1D640083
:10F500007F1CADB2082FEDD34FF4BE74204601F03E
:10F51000DFFD48B1204601F0D1FD46F0004606AAC5
:10F520000121002001F0B6FD444D16F0FF0F15D06B
:10F530000127002437420DD009EB8401D1F81005D2
:10F54000D1F81015C0F3042055F82420C1F301416F
:10F5500002B190477F00641C082CEBD3002E67DAC1
:10F560004FF0FF30CDE9088000263446281910F806
:10F57000507F90F9000027F0C008401C44D009A932
:10F58000404601F077FB58B34FEA9719404601F027
:10F590001FF855F820701FB1B9F1030F03D00FE029
:10F5A000B9F1030F30D108A84FEAD80208F00703D9
:10F5B000815C4FF0010C0CFA03FC41EA0C01815410
:10F5C0004FF0A04101EB8800D0F8000706A9C0F376
:10F5D000014A404601F04EFB18B1BAF1020F03D0C8
:10F5E00012E0BAF1030F0FD1B9F1030F08D1BAF14C
:10F5F000020F1BD00221404601F030FD761CF6B20E
:10F6000017B149464046B847641C042CAED3002EBF
:10F610000ED06A460121002001F03CFD06990098B9
:10F62000884205D00690089809909DE70321E2E7FB
:10F630000CB0BDE8F087000000600040A059002039
:10F6400000F01F02012191404009800000F1E020FC
:10F65000C0F88012704700F01F020121914040095C
:10F66000800000F1E020C0F88011704700F01F0218
:10F67000012191404009800000F1E020C0F8001114
:10F68000704700F01F02012191404009800000F105
:10F69000E020C0F80011704700F01F0201219140E6
:10F6A0004009800000F1E020C0F8001270474907CF
:10F6B000090E002806DA00F00F0000F1E02080F8C3
:10F6C000141D704700F1E02080F80014704700001E
:10F6D0002DE9F0414FF48077384601F0D3FA012448
:10F6E000104EA50748B1384601F0D3FA0120C5F8FD
:10F6F00008037470002000F095FF4FF482773846BD
:10F7000001F0C0FA00280BD0384601F0C2FA0220FE
:10F71000C5F80803B470BDE8F041012000F082BFD5
:10F72000BDE8F0818C59002007480021C0F8401145
:10F73000C0F84411C0F84811C0F84C11C0F80011CD
:10F74000C0F8041102F024B90010014002F098B88A
:10F75000074810B5406830B18047002807D0BDE8A1
:10F76000104000F011BABDE8104001F005B910BD1D
:10F770007C410020F0B598480023021D0178012546
:10F78000101D4FF08056062907D11478240704D1A4
:10F790000478C4F30314032C02D0062904D00FE02C
:10F7A0008F4F8E4C7C670EE01478240708D10478C4
:10F7B000C4F30314032C06D0042C04D0052C02D06F
:10F7C000062907D00EE0D6F84442864FC4F34234EF
:10F7D0003C6002E01478240704D10478C4F30314D5
:10F7E000032C02D0062906D011E07F4C276827F0B1
:10F7F000807727600EE01478240708D10478C4F3DA
:10F800000314032C06D0042C04D0052C02D00629A6
:10F810000AD011E04FF08044C4F80C31C4F8103124
:10F82000704C241F236002E01478240704D104786C
:10F83000C4F30314032C02D0062905D00CE0694F51
:10F84000032464373C600AE01478240704D1047868
:10F85000C4F30314032C02D006290DD014E0634F27
:10F8600005243C60614C78342560604C083423608A
:10F870003F243F1D3C6002E01478240704D1047843
:10F88000C4F30314052C02D0062957D068E0584968
:10F890000968584A11605649091D0968121D11600E
:10F8A000534908310968121D116051490C3109682A
:10F8B000121D11604E4910310968121D11604C492A
:10F8C00014310968121D1160494918310968494A03
:10F8D0002032116046491C310968121D11604449EB
:10F8E00020310968121D1160414924310968121D37
:10F8F00011603F4928310968121D11603C492C31C3
:10F900000968121D11603A4930310968394A40329C
:10F910001160374934310968121D1160344938319A
:10F920000968121D116032493C310968121D1160CD
:10F930002F4940310968121D116002E01178090752
:10F940000ED10078C0F30310032803D0042801D09F
:10F95000052805D1D6F85802274900F04F00086065
:10F9600021487438016841F470010160BFF34F8F82
:10F97000BFF36F8F4FF01021D1F80002002803DB96
:10F98000D1F80402002822DA1C4A15601C480468D9
:10F99000002CFCD01524C1F800420568002DFCD0D5
:10F9A000C1F8044201680029FCD0136001680029F5
:10F9B000FCD0BFF34F8F0C48F0380168114A01F4B6
:10F9C000E06111430160BFF34F8F00BFFDE70F49B6
:10F9D0000D480860F0BD0000E00F00F00DF0ADBA7A
:10F9E00000C007403C050040FCED00E01056004020
:10F9F0000404001020C50040E40E004004E501406E
:10FA000000E401400400FA050090D003904100207A
:10FA10000448017F04480029024901D002F0CBB814
:10FA200002F03AB8F85900200020004002E008C86F
:10FA3000121F08C1002AFAD170477047002001E068
:10FA400001C1121F002AFBD17047000001212028AC
:10FA500003DA81400548014003E0402802DA2038FB
:10FA6000814009B10120704700207047FC06FFBCAF
:10FA700070B500230D884C680DE0E618E15C7678DF
:10FA8000864206D1E018801C491E5060118000207B
:10FA900070BD0B445B1C9D42EFD8052070BD00007B
:10FAA00070B50024084D05E0686810F8340001F0D6
:10FAB0009DF9641C28788442F6D304480068BDE8A8
:10FAC000704000F0FBB8000048410020401D0200DB
:10FAD00070B50024064D06E06868012110F8340076
:10FAE00001F0A8F9641C28788442F5D3002070BD89
:10FAF00048410020F8B515460C460646052A01D2B5
:10FB00000720F8BD01F07CFA18B901F04BFA002883
:10FB1000F7D1104900204E600C70C1E902500E4D23
:10FB200008610DE006EBC4006968009181788DF8EA
:10FB300001100078094A694601F0CEF90028E0D1A9
:10FB4000641EE4B2EED2BDE8F840054A0021024846
:10FB500000F026B848410020401D020021090200A3
:10FB600099070200BFF34F8F05480168054A01F469
:10FB7000E06111430160BFF34F8F00BFFDE700005C
:10FB80000CED00E00400FA050EB500210091CDE96E
:10FB900001106A4644F20100FFF7E4FF0EBD0000C9
:10FBA000074B5B6823B12AB120B10068037C1BB10D
:10FBB0000820704707207047417442610020704759
:10FBC0006C4100202DE9F0470746984614468946C7
:10FBD00090074FF0000526D12CB301F0E9FC134E3D
:10FBE00006F11000C6F80C800570457080F8029090
:10FBF00044607560357075701420FFF721FD072192
:10FC00001420FFF754FD1420FFF730FD084807606B
:10FC100007211120FFF74BFD0548001F0068B06069
:10FC20000020BDE8F0870720FBE700005C410020D2
:10FC3000081501402DE9FC47DFF87890D9F8043029
:10FC400073B368B3052902D20720BDE8FC87436976
:10FC500033B3437C012B25D000270446002588467A
:10FC600016468DF80050684600F038F801A802F0FA
:10FC70001BF8C8B1012101700F4944600968C0E94F
:10FC80000218C0E904769DF8040089F801009DF887
:10FC9000000000F047F81420FFF7FEFC2846D4E7E8
:10FCA0000820D2E70F46D8E704259DF8000000F0B1
:10FCB00039F8F3E76C410020041501400649496812
:10FCC00039B130B1416921B100210174022101F043
:10FCD0003BBE0820704700006C41002030B5EFF3B8
:10FCE000108172B60D4A9468012324B10370002973
:10FCF00000D162B630BD93604FF0E023D3F880515D
:10FD0000074C25401560C3F88041D3F88441546006
:10FD10005A17C3F8842100220270E8E7385A0020FD
:10FD2000FC06FFBC0B498A68002A11D000280FD1BD
:10FD3000EFF3108072B60B684FF0E022C2F800318A
:10FD40004B68C2F8043100228A60002800D162B6F4
:10FD500070470000385A00200249887D497D0840DC
:10FD600001F016BD185600202DE9F047044603881F
:10FD70003F4801228CB000F1150A102B09D0112B3D
:10FD800055D01A2B71D1217AB2EB111F54D2012315
:10FD900053E0027D417D05468A43011D06A801F01E
:10FDA000D2FC142206A901A8FFF746FBDFF8C09099
:10FDB0000026374609F114090DF104080AE000BFD6
:10FDC00008EB46001D2283884946281D009701F054
:10FDD0007FFC761C0198B042F2D8287DA688C043EB
:10FDE000C0B201F097FCA0F57F41FF3917D005EBB9
:10FDF00040000123868032465146281D01F0D7FC81
:10FE0000012332464946281D01F0D1FCE07B02283F
:10FE10000BD000231649A2881631281D20E00CB013
:10FE20000420BDE8F047FFF7AFBE0123F2E700234F
:10FE3000A2885146001D13E000230D490546A28803
:10FE40001731001D01F0B3FC207A0221B1EB101F25
:10FE500001D2012300E000230549A2881831281DA2
:10FE60000CB0BDE8F04701F0A2BC0CB0BDE8F087D3
:10FE70001856002070B540B10C4D297839B10446B0
:10FE800001F07AFB28B1002070BD0E2070BD082063
:10FE900070BDE868062807D20549226801EB800199
:10FEA000401C0A60E860EEE7042070BD304100208D
:10FEB0004C56002040B1054900220123CA600B7056
:10FEC000C1E90102104670470E2070473041002002
:10FED00000281FD000291DD00F4A1278002A19D0FF
:10FEE0000A88112A0ED0302A06D0322A07D0332AA7
:10FEF00010D1091D01F03CBA091D01F0B1BA091D6C
:10FF000001F0ACB98988B0F85E22914202D100219B
:10FF100080F85B12704700003041002010B50B469E
:10FF2000040009D0124A107840B1D06830B194F87A
:10FF30005B0228B1112010BD0E2010BD082010BD9D
:10FF4000A4F85E320020906084F85C0284F85A02C3
:10FF500084F85902074822460121006820601846AB
:10FF600094DF0028EBD1012084F85B02002010BD53
:10FF7000304100204C56002070B505468488FFF7BC
:10FF8000F3FE284601F0F8F8082C12D204EB4400E6
:10FF9000084900EB041001EB40102946FFF798FFD9
:10FFA00004482946803800EB0410BDE8704000F09A
:10FFB00065B870BDAC42002070B518B30288A2F5D8
:10FFC0007F41FF391CD0104C4388104D206800EB56
:10FFD0008001401C00F00700206005EB8101022039
:10FFE0004B81C881081D086100248C8101200872A2
:10FFF00008714C710A80887001F00CFD204670BDBC
:020000040002F8
:10000000082070BD0E2070BD40410020EC5800203B
:1000100040B1018022B11168C0F802109188C180FE
:10002000002070470E20704730B5134D040085B096
:100030002DCD8DE82D001DD0E1B10868D0B1002094
:100040006080A080E0804FF6FF7020800868A0608C
:1000500004F10C01684663DF002809D1207B8DF88C
:10006000120041F22350ADF8100004A8FFF702FF80
:1000700005B030BD0E20FBE72C1D02000EB5002898
:100080001FD000291DD00A88112A23D0382A19D060
:10009000392A16D102888B889A4212D14A898388DC
:1000A0009A420ED1CA89012A0BD102228DF8002072
:1000B0000288ADF80220097C8DF804108268694638
:1000C00090470EBD008889888842FAD1BDE80E406D
:1000D00001F0A0BC028889888A42F2D14FF6FF71F4
:1000E0000180002141808180C1800EBD70B518B3B0
:1000F0000288A2F57F43FF3B1CD0104C104D2368B3
:1001000003EB83025B1C03F00703236005EB820211
:10011000C38853810123D381141D14610024948169
:1001200002241472117100881080937001F072FC27
:10013000002070BD082070BD0E2070BD4041002021
:10014000EC5800203EB50A78002A40D18A88A2F5F2
:10015000A853233B3BD18A79037B9A4237D10122B2
:100160008DF800204A88ADF80220002218E000BF78
:1001700002EBC20301EB430333F80E4F04F6DC2419
:10018000B4F5005405D0012C09D11B89ADF8083015
:1001900005E01C89ADF806405B89ADF80430521CBF
:1001A0000B7A9342E4D80188A1F57F42FF3A0BD045
:1001B000C18849B9818839B9418829B90199C0F8FC
:1001C0000210BDF80810C1808268694690473EBDA4
:1001D00000B5154889B000230068079050221349E4
:1001E00007A801F015FB08B1FFF7CEFC6A46002115
:1001F000082001F0F7FA08B1FFF7C6FC0A20ADF8B5
:1002000000001720ADF81000684601F0E1FA08B1CF
:10021000FFF7BAFC064801F0D1FA002801D0FFF739
:10022000B3FC09B000BD0000D81C020094410020BE
:1002300079FF010007490B5C4FF0A041D1F804257C
:100240000120984020EA0203C1F808351040C1F8A7
:100250000C057047F81C02000249085C012100F0FF
:100260000EBF0000F81C02000249085C002100F0EB
:1002700006BF0000F81C02000649095C4FF0A040D0
:10028000D0F80405C84010F0010000D0012080F033
:1002900001007047F81C02007CB50024084E25467A
:1002A0000122305D009500231146019500F0B2FE59
:1002B000641C042CF4D3BDE87C4000F003B80000BB
:1002C000F81C020010B500242046FFF7C5FF641C8F
:1002D000042CF9D310BD10B500242046FFF7C4FF4D
:1002E000641C042CF9D310BD10B50246064B4FF028
:1002F000FF3000215C5C944201D1084610BD491CCE
:100300000429F7D310BD0000FC1C02002DE9F047C2
:100310000D468146FFF7E8FF0446042838D2DFF88F
:1003200078801C481D4EA8F1100735B3012D0ED062
:10033000022D2DD104EB440030444578002D27D008
:10034000F968002924D02846BDE8F047084704EBA7
:100350004401755C0E44717859B179680E4A01EB1D
:10036000810149000E3A8068FFF764FC08B987F8FC
:100370000290B17808F80410E0E78068FFF79EFC6F
:1003800004EB4401314418F804008D78A842D5D01C
:10039000BDE8F087001D02002C410020EC55002034
:1003A000044A01460020127AD20702D0084600F023
:1003B00003B870471C4100202DE9F047594C054611
:1003C0000026607818B100206070FFF77BFF0120E5
:1003D000554F4FF47A694FF4C87A4FF06408182DDE
:1003E0002CD2DFE805F0890C0C2C3A4751565A61A3
:1003F0005A619B6969696969898C8F929B9B00200E
:10040000FFF73AFF00284FF0000008D0FFF724FF65
:10041000022D02D14FF4E16006E0484604E0FFF708
:1004200023FF022D2ED05046B0FBF8F125706068F6
:10043000414300223868FFF7FDFB064659E00020E3
:10044000FFF71AFF28B10020FFF706FF4FF44870AE
:10045000EAE70020FFF708FF14E00020FFF70CFF99
:1004600000284FF0000002D0FFF7F6FED5E7FFF7B7
:10047000FBFED8E70020FFF7FFFE0028E9D00020B0
:10048000FFF7EAFEC820CFE70020FFF7D3FE257074
:1004900007E000203FE025702BE060700120FFF7AF
:1004A000C9FE00226168C5E760700120FFF7C2FE47
:1004B000606800EB8001BCE77868FFF7FFFB064649
:1004C000D5F1110000D01EB10220FFF7C5FE10E0EB
:1004D00001280BD9C82110FB01F1B1FBF8F16068CC
:1004E000002241437868FFF7A5FB06460220FFF78C
:1004F000BBFE3046BDE8F087FFF7E4FECBE7FFF731
:10050000E1FEC6E7FFF7DEFE04E0FFF7DBFE0020BA
:10051000FFF7AAFE0120FFF7A7FEBCE7FFF7DBFE0F
:10052000B9E700001C410020001D02002DE9F04148
:100530000D2803D0BDE8F041FFF726BB0A4E0D465B
:10054000002443F2020700BF06EB04102946FFF720
:10055000CDFD18B1B84201D0082802D1641C082C86
:10056000F2D3BDE8F08100002C42002005494FF095
:10057000FF32082841F8202002D3084480F84820A0
:1005800070470000A0590020F0B54FF0FF3512B1C0
:100590000023082601E008230C260C4C05E000BFD0
:1005A00054F823707F1C04D05B1CB342F8D3284658
:1005B000F0BD26185DB286F8305044F82310002AAA
:1005C000F5D1E11881F84800F1E70000A0590020BA
:1005D0000249084490F9300070470000A0590020FB
:1005E00008B5024690F85A020B4600EBC00101EB39
:1005F000001002EB800092F8592242B1521ED2B292
:1006000002EBC20100EB4102518A491C00E0C188A3
:10061000ADF800100089ADF802006946184696DF73
:1006200008BD000070B5084C050009D010342168E1
:10063000002907D008682060496828468847F6E7FF
:100640000834F4E770BD00008C5900202DE9F05FFC
:1006500026484168F1B3DFF898B00E688146DBF8B0
:10066000004087688078E11B21F07F45ED1CB0B920
:10067000DFF880804FF48030C8F84403C8F80403E2
:100680001120FEF7DDFF1120FEF7F0FF4FF0010A09
:10069000C8F800A02F2000F005FB89F802A0B542A1
:1006A00000D23546124BE8193C3320F07F401860E9
:1006B000DBF800105A46091B21F07F41001B20F097
:1006C0007F40C91C81420FD9106818602F2000F0AC
:1006D000E9FA00E004E0BDE8F05F1120FEF7DCBFBE
:1006E000BDE8F05F00F064BFBDE8F09F5C41002012
:1006F00004150140001001404188034A02EB011239
:1007000001461046FFF71EBD2C4200202DE9F8439C
:10071000054690F85A020F4600EBC00101EB0010AD
:1007200005EB800695F85942914604EBC40006EBB0
:1007300040013279601C0A31904226D16B4600227A
:10074000284600F055F918B310E0401EA04201D130
:10075000002004E004EBC40006EB40001C3080469F
:1007600002466B46284600F043F930B1002038704D
:100770006946484697DFBDE8F88395F85902414637
:10078000401C641C85F85902E4B23079A042DCD8E0
:10079000012038700020EEE72DE9F0410026012508
:1007A000144C22E06068226900EBC607387805FA2D
:1007B00000F1114217D08A43226100F0E9FB0246A2
:1007C0003878E36805FA00F1194002FA00F399421B
:1007D00009D17978012901D0012100E0002151409F
:1007E0007A6802B19047761CF6B220788642D9D357
:1007F000BDE8F081484100202DE9F047894690F896
:100800005A12904601EBC10202EB011100EB810785
:10081000384600F0B1FE060041D0224CA068062800
:100820003DD200EBC000204D00EB400005EB800006
:100830006422A0F802803946001DFEF7FDFD002766
:10084000B9F1000F07D0A06800EBC00000EB40003A
:1008500005F8207007E0A168022001EBC10101EB5F
:10086000410105F82100A06800EBC00101EB410146
:1008700005EB8101401C8E66A060E16888420ED1C4
:10088000002608E006EBC60000EB400005EB800008
:10089000816E8847761CE0688642F3D3A760BDE886
:1008A000F0870000304100206456002030B50D462E
:1008B00090F85A12144601EBC10202EB01119BB0F1
:1008C00000EB810000F058FE030007D0ADF80240B5
:1008D00001208DF800006846019598471BB030BD97
:1008E0000E4910B50A784C780023A24212D0521C4F
:1008F000D2B20A70022A00D10B70084A0B78183263
:1009000052F8232002608868104420F07F408860FD
:10091000012010BD0360002010BD00005C410020DC
:100920002DE9F041124E07460125BD403068FFF722
:10093000C5F900280DD10F4C2069284207D138464F
:1009400000F026FB0028E06805D0284304E0A84317
:100950002061BDE8F081A843E06020692843206160
:10096000A1683068BDE8F0410022FFF763B90000DC
:10097000401D020048410020F8B51C4C207800289A
:1009800032D0E068002658B10025607800282BD1CD
:10099000684648DF052805D030B1FFF7F5F80AE0D2
:1009A0000125F2E7012606E0009800F0FDF9216933
:1009B00009B1009888479DB96078002814D16088F3
:1009C000ADF800006946A06861DF052803D020B1BA
:1009D000FFF7DAF804E0012502E0D4E902018847D4
:1009E000002ED2D0002DE6D0F8BD00007C410020C2
:1009F00010B509892AB1D088491C814218D100203C
:100A000010BD90F85A2202EBC20404EB021200EB74
:100A1000820212899142F2D0491C198090F85A1230
:100A200001EBC10202EB011100EB8100008902E041
:100A30001980D088401E5880012010BD10B5044692
:100A4000087801280AD002281AD1087900284FF026
:100A5000020011D0BDE81040FFF706BCFFF738F8E0
:100A600008B1FFF791F82046FFF7A6FA002807D053
:100A7000BDE81040FFF788B8BDE81040FFF7ECBBB9
:100A800010BD00002DE9F043264CA4F11009227896
:100A9000D9F8048099F80350404694F801C0D9F879
:100AA000086031E002EB42036168521C01EBC301B4
:100AB000A378D2B2934200D100220B78022B02D04D
:100AC000032B21D11DE003464F68194603E0B942CC
:100AD00003D00B46C969B9B1F9E7A9B18B4205D179
:100AE000C06918B9104E0125B56000260F68C969A4
:100AF000D96149B10B683B440B6005E00174C069E2
:100B000000E000210028F9D19445CBD1C9E90106C4
:100B100089F80350404502D00120BDE8F083002051
:100B2000FBE700006C410020001001402DE9F0417E
:100B30002A4F0446002607F11005D7F804803EE04E
:100B400002D02046E4691DE02878696800EB400285
:100B5000401CC0B201EBC2012870AA78904200D1BB
:100B60002E700A784868012A2BD1027C4ABB8A6819
:100B70004260CA6882600A69C26049698161F97825
:100B800001B146604368BA68DFF854C0991A21F091
:100B90007F41614502D28268114406E0D11A826821
:100BA00021F07F418A4202D9511A016000E00660BB
:100BB0004660012186600174C66100F0A7FE002C2A
:100BC000BED1287869788842BED17968414502D083
:100BD0000120BDE8F0810020FBE700005C4100201F
:100BE000FFFF7F0008B5FFF757FB00231D4A0321D5
:100BF0001846FEF7E7FF08B1FEF7C6FF40F266624F
:100C000001211948FEF776FF08B1FEF7BDFFFFF797
:100C1000DFFA1648FFF74EF908B1FEF7B5FF124CA0
:100C200013480025241F0F4E009025704836207869
:100C3000694606EB0010FFF7F7F908B1FEF7A4FFCD
:100C40002078401CC0B220700828F0D3257000F036
:100C5000F3FC0020FFF708FB3EDF0028FCD0FEF786
:100C600093FFF9E7E441002014410020F906020057
:100C70003D0A0200C20800F007030120895C984089
:100C80000840704700F180400068002800D0012033
:100C9000704708B500F180400021016000680090B5
:100CA00008BD000000283ED01F49204A096800BF47
:100CB00000BF00BF00BF00BF00BF00BF00BF914228
:100CC0002FD000BF00BF00BF00BF00BF00BF00BFEC
:100CD00000BF00BF00BF00BF00BF00BF00BF00BF1C
:100CE00000BF00BF00BF00BF00BF00BF00BF00BF0C
:100CF00000BF00BF00BF00BF00BF00BF00BF00BFFC
:100D000000BF00BF00BF00BF00BF00BF00BF00BFEB
:100D100000BF00BF00BF00BF00BF00BF00BF00BFDB
:100D200000BF401EC3D17047904100200024F40052
:100D300070B50F4C0025207808B1852516E00021FC
:100D4000A16061602161E1604FF0E020D0F8000116
:100D5000012610F0010F03D10721002000F029F82F
:100D600000F088FD08B9034806602670284670BD6B
:100D70008C5900201805004038B500208DF800007F
:100D80006846FEF7ABFF074C207808B9FFF7D0FFA5
:100D9000E068401CE0600120A0709DF80000FEF7B4
:100DA000C1FF38BD8C590020002801D1FFF73ABCA3
:100DB00070474907090E002806DA00F00F0202F119
:100DC000E02282F8141D03E000F1E02282F8001412
:100DD00000F01F02012191404009800000F1E02055
:100DE000C0F88012C0F800117047000010B504462A
:100DF00000F0AAFB28B12046BDE81040002100F019
:100E00002DB9204600F0ACFB00280FD02046FFF79C
:100E1000DFFB074A02EB8001D1F8103523F0010314
:100E2000C1F8103501218140C2F8081310BD00003F
:100E3000006000402DE9F0418846054600F084FB43
:100E4000234E002828461AD0FFF7C2FB304490F802
:100E500048008009032802D001280ED007E04FF097
:100E6000A040D0F81005E84010F0010F05D0032194
:100E70002846BDE8F04100F0F1B80221F8E700F0A3
:100E80006FFB002822D02846FFF7A2FB04464FF450
:100E9000807000EB84000F4F81B207EB8400D0F824
:100EA000102542F00102C0F81025084600F006F9AE
:100EB000B8F1000F0AD02846FFF78AFB56F8200049
:100EC000002803D00120A040C7F80403BDE8F0814A
:100ED000A0590020006000402DE9FC41DFF8A4800B
:100EE000044608EB0400002790F930001346C017B1
:100EF0000E46401C01D0082741E0F27819462046F2
:100F0000FFF742FB0546401C38D0B07850B14FF097
:100F1000A04000EB8400D0F8001721F00201C0F8D7
:100F2000001707E000217378204600910A460191DE
:100F300000F082F8F078C0B11348317800EB8500FA
:100F4000D0F81025114B1A40C0F810254FF4F85274
:100F50004FF4403302EA042203EA01410A43D0F885
:100F600010150A43C0F8102509E008EB0500327897
:100F700010F8481F41EA8211017000E0042738464A
:100F8000BDE8FC81A059002000600040FFE0FCFFAC
:100F90004FF0A041D1F81015C14011F0010000D070
:100FA0000120704770B5144D95F8540008B1082021
:100FB00070BD0020411E2A18401CC0B282F83010BB
:100FC0002028F8D300242046FFF7D0FA641CE4B2AE
:100FD0000C2CF8D307210620FFF7EBFE4FF4BE7070
:100FE00000F06CF805494FF00040C1F804030120FF
:100FF00085F85400002070BDA0590020006000401A
:10100000034890F85400002800D0012070470000E9
:10101000A059002070B541EA4201DDE904564FF0C5
:10102000A04441EA830141EA052104EB800041EA42
:101030000641C0F8001770BD70B541EA4201DDE914
:1010400004564FF0A04441EA830141EA052104EB34
:10105000800041EA0641C0F8001770BD4FF0A04281
:1010600002EB8000D0F8002722F44032C0F80027BD
:10107000D0F8002742EA0141C0F80017704701226A
:101080004FF0A043824011B1C3F808257047C3F860
:101090000C25704718B5084B6C4601441B6800933B
:1010A00006E000BF54F82030D3F81035401C08C2C9
:1010B0008142F7D818BD00003C1D0200034908B565
:1010C0000844002101600068009008BD00600040F5
:1010D00002494058012800D00020704700600040BD
:1010E0004058002800D00120704708B50022425027
:1010F0004058009008BDD0F80403084000D00120FB
:1011000070474058002800D00120704708B50022E1
:1011100042504058009008BD10B586B000F118014B
:1011200000F108040491C07D01AAC008ADF80C00CC
:1011300003A90920FEF79CFC30B101AA03A90820ED
:10114000FEF796FC002812D10A48FEF799F900280C
:101150000DD0BDF8042007480299FEF798F9002841
:1011600005D1044A2046083AA2F108018CDF06B0F6
:1011700010BD0000EC1C020010B50188041D1F29E1
:1011800058D00BDC102913D0112940D01B2962D074
:101190001D2960D1BDE81040FFF7BEBF3B294DD0EF
:1011A000552954D0562956D18088132176DF48E03E
:1011B0002088082802D30020FEF7E6FC2188264874
:1011C000002200EB0110FEF723FF08B1FEF7DCFC64
:1011D0002188214A01EB410000EB0110803202EB33
:1011E0004010FEF79BFE112802D008B1FEF7CCFCA0
:1011F0000120FFF739F8FEF7AFFD08284FF0000097
:1012000014D0FFF731F8BDE8104000F015BAFEF732
:1012100047FC08B1FEF7B8FC00F00EFA0020FFF71B
:1012200023F8FEF799FD002815D10120BDE81040F4
:10123000FFF712B82088211D75DF02E08088132196
:1012400076DF002807D0BDE81040FEF79DBC8088FF
:101250001721ADDFF5E710BD2C4200202DE9F84F36
:1012600005460C460888B5F85E12884259D195F8B3
:101270005A02DFF8F8A000EBC00101EB001005EB0B
:10128000800160884FF003094FF00008F0BBE6884A
:101290000879A21DF3B250FA86F6052E01D8034450
:1012A00000E005230B7100261CE000BF00EBC0032B
:1012B00006EB860702EB470701EB4303D7F802C0B2
:1012C000C3F80AC0D7F806C0C3F80EC07F895F8292
:1012D000A3F81480A3F81680A3F81880401CA3F884
:1012E0001A80761C0B798342E0D895F85A2200EBDD
:1012F000C00002EBC20303EB021205EB820231F8DD
:101300001000128990420ED2087900E00BE0052807
:1013100009D085F8590221882846FFF761F90100B4
:101320000AD1BDE8F88F85F8598222886946284697
:10133000FFF7ECF901000BD085F85B822288284684
:10134000FFF7B4FA8AF800902188AAF80210E8E7BB
:101350009DF800000028E4D0228801212846FFF7EC
:101360004BFA2188284600F0B1F8DAE764560020ED
:10137000F8B505460C460888B5F85E1288425DD17E
:1013800095F85A02A61D00EBC00101EB001005EB19
:10139000800395F85902618800EBC00003EB400020
:1013A0000A3039B329E000BF01EB410206EB4202EB
:1013B0009788B7F5245F0CD06FF4245C17EB0C070B
:1013C0000AD0012F02D0072F0BD108E052884281AA
:1013D00007E05288828104E05288C28101E052888D
:1013E000028242892AB182891AB1C2890AB1028A6B
:1013F0001AB9491C32888A42D6D800268DF8006076
:1014000095F859021979401C884203D101208DF8C2
:10141000000018E085F85902228869462846FFF73F
:1014200075F901000BD085F85B6222882846FFF72A
:101430003DFA0A480321017021884180F8BD9DF8DA
:1014400000000028FAD0228801212846FFF7D4F9AD
:101450002188284600F03AF8F8BD000064560020C4
:1014600070B505460C4690F85A02228800EBC00180
:1014700001EB001005EB8001B5F85E02824222D13B
:10148000608848B100212846FFF7B6F92188284630
:10149000BDE8704000F01AB8A2680A60E068C1F8C0
:1014A000060021882846FFF79BF801000BD000209A
:1014B00085F85B0222882846FFF7F8F902480321E5
:1014C00001702188418070BD645600202DE9F041F3
:1014D000044690F85C020E46401C1949C0B284F8DC
:1014E0005C02C9680327174D4FF0000E884224D2D2
:1014F00084F859E294F85A02401CC0B200EBC001D3
:1015000001EB001104EB810284F85A02A5F11801E5
:1015100001EB800001210068106082F804E0304691
:1015200094DF010007D084F85BE232462046FFF7E3
:10153000BDF92F706E80BDE8F08184F85BE2F8E7BA
:1015400030410020645600200449084490F93000DE
:10155000082801DB0120704700207047A0590020B7
:101560000449084490F93000082801D2012070474E
:1015700000207047A059002070B50C4B00210A4A8A
:10158000DC680DE002EB81058678AD78B54206D1C6
:1015900032F821500688B54201D1586870BD491C07
:1015A000A142EFD3002070BD4C56002030410020F6
:1015B00070B5012670044FF0E0210025C1F88001CC
:1015C000084C4010C4F84803C4F8080366602F2094
:1015D000FFF768FBA660044C2F20A560FFF762FBB5
:1015E000A57070BD001001405C41002070B505463B
:1015F000C87D0C4600284FF4847128460AD0FFF7B6
:1016000074FDD5F81805627EE1688854607E401C40
:10161000607670BDFFF769FDD5F8180570BD1FB580
:1016200001238DF800308DF808100192D0E90012E6
:10163000684690471FBD000010B58BDF07488ADF62
:1016400008B1FEF7A1FA0120FEF7AAFE002803D098
:10165000BDE81040FEF798BA10BD0000DC1C020087
:1016600010B50446FEF7F2F940B1002C09DA04F097
:101670000F0000F1E02090F8140D06E042F20100A6
:1016800010BD04F1E02090F800044109082914D2AB
:1016900099B1012911D004290FD005290DD00B488B
:1016A0000122816861B1610950F8213004F01F0402
:1016B000A240134340F8213005E042F2020010BD81
:1016C0002046FDF7DEFF002010BD0000385A002044
:1016D00070B50028049D18D0002916D0002A14D017
:1016E0005FF0000430F814609E420FD10020012307
:1016F000A34008E001EB000426780DB11E4300E092
:101700009E432670401C9042F4D370BD641C082C8C
:10171000E8D370BD70B5054600242146284600F088
:101720000AF808B1204670BD641CA4B2082CF4D39A
:101730004FF6FF7070BD01228A40024201D00120A5
:101740007047002070472DE9F04186B080464FF089
:10175000000017460D00009012D000246E46A1B282
:101760003846FFF7E8FF40B1009935F8140006EB62
:10177000410188800098401C0090641C082CEED326
:10178000142269464046FDF757FE06B0BDE8F081D9
:1017900070B5002506462C46A1B23046FFF7CBFFB8
:1017A00000B16D1C641C082CF6D3284670BD08B52A
:1017B000009313460122FFF78BFF08BD18B10349C0
:1017C000C860002070470E20704700007C41002058
:1017D0001CB5034901910091694660DF1CBD000002
:1017E0001041002070B50E46054614461C211046D7
:1017F000FDF73BFE012020800021A16121752672AA
:10180000657205B1A072002070BDFEF7ABB9000093
:101810002DE9F041074619B188074FF0000402D0C6
:101820000720BDE8F081114D4FF0E0200126A960AE
:101830006A806B60D0F8000110F0010F03D03446CD
:101840000020FDF708FF0A49384610DF070005D0E1
:1018500014B10020FDF715FF3846E2E72E70FFF7C0
:101860008BFABDE8F0411620FFF7FABE7C4100205C
:101870000B18020001480078704700007C410020EE
:101880002DE9F84F204C00256846D4E901B6FFF752
:1018900027F88046FFF7F6F80746A946B8F1000F8B
:1018A00025D00023009ACC46606819E007680146FD
:1018B000974202D9BA1A026014E0C1F800C0D1F808
:1018C0000C80D21BC8693B448A46B8F1000F07D090
:1018D000F71827F07F47C1E90178CAF81C500D4678
:1018E0000028E3D160602846FFF720F904E028468D
:1018F000FFF71CF900B917B15846FEF7A7FE84F8A8
:101900000390BDE8F88F00005C4100200D4B10B53E
:10191000596831B102680C68A24204D8A21A0A6060
:10192000C161586010BD0B4603E00B46C969121B2C
:1019300021B10C689442F8D3A41A0C600260C16112
:10194000D86110BD5C4100207CB5064600240D46E0
:101950008DF800406846FEF7C1F901A800F0A4F92F
:1019600070B10570094946609DF8040048709DF803
:101970000000FEF7D7F91420FDF78EFE20467CBD4F
:1019800004249DF80000FEF7CDF9F7E76C41002034
:101990002DE9F0411D4D6C68002C35D01C48002706
:1019A0000068A968B846401A20F07F462068B04217
:1019B00015D82246361A0744E469107C68B182F8CB
:1019C0001080EB6833B1D2E90501984728B1FEF7E2
:1019D000DBF802E0D2E905108847002CE6D129782F
:1019E0006878814206D1401CC0B26870022801D1DB
:1019F00085F8018005486978183040F82170BDE805
:101A0000F0411420FDF748BEBDE8F0815C410020A4
:101A10000415014010B50F4CD4E90010884211D0D4
:101A200000EB80020C4800EB82018B785BB130F850
:101A3000220008319CDF002804D12079401C00F0EE
:101A40000700606010BD30F82200898800229ADF0C
:101A5000F1E7000040410020EC58002070B50C4632
:101A600005464FF48E71FFF740FBA18AA068415CE8
:101A7000A08A401CA082C5F81C1570BD1FB50022AD
:101A80008DF800208DF80810816801918275D0E9E9
:101A90000012684690471FBD2DE9FF470C460546DA
:101AA0004FF40071FFF727FB01274FF40178002660
:101AB00018B34FF4927949462846FFF711FBE0B17D
:101AC00049462846FFF711FBC5F80883A07E00B9F8
:101AD0006F6002208DF80000D5F88004C5F88004FE
:101AE0000390E07D8DF80800E0680190E6752676A9
:101AF000D4E900126846904727E004212846FFF702
:101B0000FAFA10B34FF484712846FFF7E9FAE0B10E
:101B100021462846FFF76AFDE07D617E884214D1A8
:101B2000207E38B1617EE268E0752069E06026764B
:101B3000667607E0A07E00B96F60C5F80883E67599
:101B4000617EE2682046FFF76AFD4FF48E784146D9
:101B50002846FFF7C5FA88B1A08AA17D884204D241
:101B600021462846FFF77AFF08E041462846FFF75E
:101B7000BCFAA17D11B12046FFF780FF4FF4A27897
:101B800041462846FFF7ACFA002812D041462846C5
:101B9000FFF7ABFAA07E00B12F60E07D002808D0EF
:101BA000E675617EE26804B02046BDE8F047FFF7C5
:101BB00036BDBDE8FF872DE9FF410C464FF4927713
:101BC00005463946FFF79DFA0026C0B1394628463A
:101BD000FFF79CFA02208DF80000D5F88004C5F8C4
:101BE00080040390D5F83C058DF80800E06801906A
:101BF000E6752676D4E900126846904724E04FF453
:101C0000887739462846FFF77CFAE8B139462846F6
:101C1000FFF77CFAD5F83C05C1B2E07D884213D1CC
:101C2000207E60B1E268D5F8000220F02000C5F8FF
:101C30000002207EE0752069E060267601E0E6750E
:101C4000E2682046FFF7EBFC4FF4A27739462846BE
:101C5000FFF757FA68B139462846FFF757FAE07D93
:101C600038B1E675D5F83C05E268C1B22046FFF709
:101C7000D6FC4FF4907631462846FFF742FA00280A
:101C80000FD031462846FFF741FAA07D002808D042
:101C9000D5F84C0504B0C1B22046BDE8F041FFF7CD
:101CA000EDBEBDE8FF8100000A4A10B55378947874
:101CB000591CC9B28C4200D1002114788C4201D148
:101CC000002010BD0170506803EB430100EBC10020
:101CD00010BD00006C410020010000070000A000C2
:101CE0005000000006001800000090014E6F726462
:101CF00069635F5561727400111213140D0E0F1099
:101D0000AC550020CC550020F85500200D000300F4
:101D10000D0302000E0003000D0302000F0003007C
:101D20000D030200100003000D03020023D1BCEAE2
:101D30005F782315DEEF1212000000000000005053
:101D4000185A002003000000681D02001041002006
:101D5000840000002CFA0100EC1D020094410020D8
:101D6000B43800003CFA0100000000000D00030040
:101D70002D0502000000000000000000000000002F
:101D80000000000000000000000000000000000053
:101D90000000000000000000000000000000000043
:101DA0000000000000000000000000000000000033
:101DB0000000000000000000000000000000000023
:101DC0000000000000000000000000000000000013
:101DD0000000000000000000000000000000000003
:0C1DE00000000000000000000090D00394
:040000050001F40101
:00000001FF
